:020000040800F2
:100000000000022045130008A90D0008B10D0008EA
:10001000B90D0008C10D0008C90D0008000000005E
:10002000000000000000000000000000D10D0008EA
:10003000DF0D000800000000ED0D0008FB0D0008BA
:1000400095130008951300089513000895130008F0
:1000500095130008951300089513000895130008E0
:1000600095130008951300089513000895130008D0
:10007000090E0008951300081D0E000895130008CE
:1000800095130008951300089513000895130008B0
:1000900095130008951300089513000895130008A0
:1000A0009513000895130008951300089513000890
:1000B0009513000895130008951300089513000880
:1000C0009513000895130008951300089513000870
:1000D00095130008310E000895130008450E00081E
:1000E0009513000895130008951300089513000850
:1000F0009513000895130008951300089513000840
:10010000951300089513000895130008951300082F
:100110009513000895130008590E00089513000860
:1001200095130008951300086D0E0008951300083C
:1001300095130008951300089513000895130008FF
:1001400095130008951300089513000895130008EF
:100150009513000895130008810E000895130008F8
:1001600095130008951300089513000895130008CF
:10017000951300089513000895130008000000006F
:08018000951300089513000817
:1001880010B5054C237833B9044B13B10448AFF3C9
:1001980000800123237010BD2C0000200000000007
:1001A800DC45000808B5034B1BB103490348AFF30E
:1001B800008008BD0000000030000020DC45000879
:1001C80053B94AB9002908BF00281CBF4FF0FF31B6
:1001D8004FF0FF3000F06AB9ADF1080C6DE904CEBC
:1001E80000F006F8DDF804E0DDE9022304B070470A
:1001F8002DE9F047089D0C46002B4ED194468C45BE
:100208008646B2FA82F262D94AB1C2F1200391401D
:1002180020FA03F30CFA02FC194300FA02FE4FEA33
:100228001C471FFA8CF6B1FBF7F44FEA1E4307FB95
:10023800141143EA014304FB06F199420AD91CEB65
:10024800030304F1FF3080F01281994240F20F81DC
:10025800023C6344591A1FFA8EF3B1FBF7F007FB0F
:10026800101143EA014300FB06F69E420AD91CEB33
:10027800030300F1FF3180F0FC809E4240F2F980D8
:10028800634402389B1B40EA044000211DB1D3405F
:100298000022C5E90032BDE8F0878B4205D90DB1CF
:1002A800C5E9000100210846F5E7B3FA83F1002902
:1002B80046D1A34202D39042C0F0F080861A64EB84
:1002C80003030120002DE6D0C5E90063E3E7002A17
:1002D80040F09080A1EB0C044FEA1C481FFA8CF701
:1002E8000121B4FBF8F64FEA1E4308FB164443EA23
:1002F800044307FB06F0984208D91CEB030306F1F8
:10030800FF3402D2984200F2CD8026461C1A1FFA0A
:100318008EF3B4FBF8F008FB104443EA044300FBF7
:1003280007F79F4208D91CEB030300F1FF3402D200
:100338009F4200F2B0802046DB1B40EA0640A5E75A
:10034800C1F120068B4022FA06F71F4320FA06FC6B
:1003580004FA01F343EA0C03F44000FA01F8380CFC
:100368004FEA1349B4FBF0FE1FFA87FC00FB1E445A
:1003780049EA04440EFB0CF9A14502FA01F20AD934
:100388003C190EF1FF3A80F08480A14540F281804B
:10039800AEF1020E3C44A4EB09041FFA83F9B4FB46
:1003A800F0F300FB134449EA044403FB0CFCA445A6
:1003B80007D93C1903F1FF3067D2A44565D9023B40
:1003C8003C4443EA0E40A0FB0293A4EB0C049C427D
:1003D800CE469C4651D34ED055B1B8EB0E0364EBD4
:1003E8000C0404FA06F6CB401E43CC40C5E9006471
:1003F800002150E7C2F1200320FA03F10CFA02FCB5
:1004080024FA03F394400C434FEA1C4800FA02FE16
:100418001FFA8CF7B3FBF8F008FB1031230C43EA02
:10042800014300FB07F1994208D91CEB030300F1D3
:10043800FF362CD299422AD9023863445B1AA4B2F7
:10044800B3FBF8F108FB113344EA034401FB07F35B
:10045800A34208D91CEB040401F1FF3613D2A342CE
:1004680011D902396444E41A41EA004139E70446E3
:10047800F0E6084606E7C845AED2B9EB020E63EBD4
:10048800070C0138A8E73146EDE7034699E73046FF
:10049800D4E7D6467FE7634402384DE7064623464D
:1004A80008460FE7023E634430E700BF704700BFCD
:1004B80080B582B000AF78607B681B680B4A9342B6
:1004C80004D14FF480610A4801F0C1FE7B681B68C3
:1004D800084A934206D14FF48061054801F0B7FEFF
:1004E80000F0E6FC00BF0837BD4680BD00100140A3
:1004F800001402400048004080B584B000AF786026
:100508007B681B68134A934204D14FF40071124868
:1005180001F09DFE7B681B68104A934215D100F0DC
:10052800C7FC0023FB7308E0FA7BFB7B0C49895C62
:100538000C4AD154FB7B0133FB73FB7B0A2BF3D9A9
:100548004FF40071044801F082FE00BF1037BD4629
:1005580080BD00BF00100140001402400048004068
:10056800E0020020A002002080B582B000AF7860D1
:100578007B681B680A4A93420ED14FF480410948B0
:1005880001F065FE084B1B78002B0CBF01230023EC
:10059800DBB21A46044B1A7000BF0837BD4680BD4F
:1005A8000010004000100240EB02002080B500AFB0
:1005B80000F0EEFE00F03CF800F074F900F02CF9C1
:1005C80000F0D6F800F0FEF800F09CF8104802F0B1
:1005D80041FB05220F49104802F050FE05220F4941
:1005E8000D4802F04BFE05220D490B4802F046FE6D
:1005F80005220C49084802F041FE40220A490B48EE
:1006080002F03CFE4FF4FA7000F034FF00BFF4E74C
:100618004800002008000020D8000020100000201A
:100628001800002000000020A002002090000020F8
:1006380080B594B000AF07F120033022002118469E
:1006480003F09CFF07F10C0300221A605A609A60BD
:10065800DA601A610023BB60284B1B6C274A43F001
:1006680080531364254B1B6C03F08053BB60BB683D
:1006780000237B60224B1B68214A43F480431360AC
:100688001F4B1B6803F480437B607B6801233B623C
:100698004FF480337B620223BB634FF48003FB6318
:1006A80004233B64A8237B640223BB640723FB6405
:1006B80007F12003184601F0E5FD0346002B01D0A1
:1006C80000F0BEF90F23FB6002233B6100237B612E
:1006D8004FF4A053BB614FF48053FB6107F10C0347
:1006E8000521184602F046F80346002B01D000F019
:1006F800A7F900BF5037BD4680BD00BF0038024093
:100708000070004080B582B000AF3B4600221A60FE
:100718005A60154B154A1A60134B53225A60124BF4
:1007280000229A60104B41F28832DA600E4B0022A8
:100738009A610D4802F03EFA0346002B01D000F002
:100748007FF900233B6000237B603B46194606483F
:1007580002F0B4FC0346002B01D000F071F900BF91
:100768000837BD4680BD00BF48000020001000408B
:1007780080B500AF114B124A1A60104B4FF4E132AA
:100788005A600E4B00229A600C4B0022DA600B4B29
:1007980000221A61094B0C225A61084B00229A6107
:1007A800064B0022DA61054802F018FD0346002BCB
:1007B80001D000F045F900BF80BD00BF90000020C7
:1007C8000010014080B500AF114B124A1A60104B5F
:1007D8004FF4E1325A600E4B00229A600C4B002213
:1007E800DA600B4B00221A61094B0C225A61084B44
:1007F80000229A61064B0022DA61054802F0EEFCFD
:100808000346002B01D000F01BF900BF80BD00BFDC
:10081800D80000200048004080B582B000AF002317
:100828007B601F4B1B6B1E4A43F4800313631C4BF6
:100838001B6B03F480037B607B6800233B60184BD1
:100848001B6B174A43F400131363154B1B6B03F41C
:1008580000133B603B68002200210C2000F009FFD8
:100868000C2000F022FF002200210E2000F001FFE2
:100878000E2000F01AFF002200213A2000F0F9FEB5
:100888003A2000F012FF00220021462000F0F1FE7D
:10089800462000F00AFF00BF0837BD4680BD00BFF4
:1008A8000038024080B58CB000AF07F11C0300226D
:1008B8001A605A609A60DA601A610023BB615C4B67
:1008C8001B6B5B4A43F010031363594B1B6B03F01C
:1008D8001003BB61BB6900237B61554B1B6B544AFA
:1008E80043F004031363524B1B6B03F004037B6157
:1008F8007B6900233B614E4B1B6B4D4A43F0200341
:1009080013634B4B1B6B03F020033B613B690023D4
:10091800FB60474B1B6B464A43F080031363444B11
:100928001B6B03F08003FB60FB680023BB60404B3C
:100938001B6B3F4A43F0010313633D4B1B6B03F0F2
:100948000103BB60BB6800237B60394B1B6B384AD3
:1009580043F002031363364B1B6B03F002037B6007
:100968007B6800224FF40071324801F057FC0122E5
:100978004FF480612F4801F051FC00224FF44041B0
:100988002D4801F04BFC00224FF400512B4801F098
:1009980045FC1823FB6100233B6200237B6207F1BF
:1009A8001C031946244801F09DFA4FF4C063FB610B
:1009B80001233B6200237B620023BB6207F11C0317
:1009C80019461C4801F08EFA4FF44043FB6101239D
:1009D8003B6200237B620023BB6207F11C031946BC
:1009E800154801F07FFA4FF40053FB6101233B6285
:1009F80000237B620023BB6207F11C0319460F48E2
:100A080001F070FA4FF44073FB6112233B6200233C
:100A18007B620323BB620423FB6207F11C031946B4
:100A2800064801F05FFA00BF3037BD4680BD00BF01
:100A38000038024000140240001002400004024046
:100A480080B400AF72B600BF00BFFDE780B483B0CA
:100A580000AF00237B60104B5B6C0F4A43F480436C
:100A680053640D4B5B6C03F480437B607B6800230D
:100A78003B60094B1B6C084A43F080531364064BD8
:100A88001B6C03F080533B603B6800BF0C37BD46CE
:100A98005DF8047B704700BF0038024080B584B021
:100AA80000AF78607B681B680E4A934215D100231B
:100AB800FB600D4B1B6C0C4A43F0100313640A4B8C
:100AC8001B6C03F01003FB60FB680022002136203A
:100AD80000F0CFFD362000F0E8FD00BF1037BD461E
:100AE80080BD00BF001000400038024080B58CB0C7
:100AF80000AF786007F11C0300221A605A609A6000
:100B0800DA601A617B681B68984A934240F09280C9
:100B18000023BB61964B5B6C954A43F0100353640A
:100B2800934B5B6C03F01003BB61BB6900237B61D3
:100B38008F4B1B6B8E4A43F0010313638C4B1B6B6B
:100B480003F001037B617B694FF4C063FB610223FF
:100B58003B6200237B620323BB620723FB6207F12E
:100B68001C031946834801F0BDF9834B834A1A6078
:100B7800814B4FF000625A607F4B00229A607E4B97
:100B88000022DA607C4B4FF480621A617A4B0022B3
:100B98005A61794B00229A61774B0022DA61764BD1
:100BA80000221A62744B00225A62734800F098FDC2
:100BB8000346002B01D0FFF743FF7B686E4ADA63D8
:100BC8006D4A7B6893636E4B6E4A1A606C4B4FF0AC
:100BD80000625A606A4B40229A60694B0022DA60D0
:100BE800674B4FF480621A61654B00225A61644B6F
:100BF80000229A61624B0022DA61614B00221A627C
:100C08005F4B00225A625E4800F06AFD0346002BE3
:100C180001D0FFF715FF7B68594A9A63584A7B68E9
:100C2800936300220021252000F023FD252000F0F9
:100C38003CFD96E07B681B68534A934240F09180E4
:100C480000233B614A4B1B6C494A43F480231364DD
:100C5800474B1B6C03F480233B613B690023FB601B
:100C6800434B1B6B424A43F002031363404B1B6B1D
:100C780003F00203FB60FB684FF44063FB6102234F
:100C88003B6200237B620323BB620723FB6207F1FD
:100C98001C0319463D4801F025F93D4B3D4A1A60B1
:100CA8003B4B4FF000625A60394B00229A60384B38
:100CB8000022DA60364B4FF480621A61344B00220E
:100CC8005A61334B00229A61314B0022DA61304B72
:100CD80000221A622E4B00225A622D4800F000FDB5
:100CE8000346002B01D0FFF7ABFE7B68284ADA6386
:100CF800274A7B689363284B284A1A60264B4FF093
:100D080000625A60244B40229A60234B0022DA602A
:100D1800214B4FF480621A611F4B00225A611E4B0F
:100D280000229A611C4B0022DA611B4B00221A62D6
:100D3800194B00225A62184800F0D2FC0346002BD7
:100D480001D0FFF77DFE7B68134A9A63124A7B68DD
:100D5800936300220021272000F08BFC272000F05D
:100D6800A4FC00BF3037BD4680BD00BF0010014065
:100D78000038024000000240200100204064024088
:100D880080010020B864024000480040000402408E
:100D9800E001002028600240400200205860024024
:100DA80080B400AF00BFFDE780B400AF00BFFDE72F
:100DB80080B400AF00BFFDE780B400AF00BFFDE71F
:100DC80080B400AF00BFFDE780B400AF00BFBD46F0
:100DD8005DF8047B704780B400AF00BFBD465DF886
:100DE800047B704780B400AF00BFBD465DF8047B4C
:100DF800704780B500AF00F01DFB00BF80BD00004C
:100E080080B500AF024800F003FE00BF80BD00BF00
:100E1800E001002080B500AF024800F0F9FD00BFF6
:100E280080BD00BF4002002080B500AF024802F03C
:100E3800BBFA00BF80BD00BF9000002080B500AFA6
:100E4800024802F0B1FA00BF80BD00BFD800002000
:100E580080B500AF024801F06DFF00BF80BD00BF44
:100E68004800002080B500AF024800F0D1FD00BF67
:100E780080BD00BF2001002080B500AF024800F00F
:100E8800C7FD00BF80BD00BF8001002080B400AF57
:100E9800064BD3F88830054A43F47003C2F888300B
:100EA80000BFBD465DF8047B704700BF00ED00E061
:100EB80080B588B000AF07F110030B22194692489D
:100EC80002F04CFA3B7C3B717B7C7B71BB7CBB7139
:100ED800FB7CFB713B7D3B727B7D7B72BB7DBB7278
:100EE800FB7DFB723B7E3B737B7E7B73BB7EBB7360
:100EF8003B791A467B7913449BB2BA7913449BB267
:100F0800FA7913449BB23A7A13449BB27A7A13441F
:100F18009BB2BA7A13449BB2FA7A13449BB23A7BD7
:100F280013449BB27A7B1344FB837B797B773B79B1
:100F38005522934240F0FA81FB8BBA7B1340BA7B6F
:100F4800934240F0F3817B7F503B0A2B00F2EF8104
:100F580001A252F823F000BF8D0F0008D10F00083E
:100F6800151000085B100008B510000819110008DA
:100F780073110008CD11000827120008811200081B
:100F8800DB1200083A79614B1A707A795F4B5A7014
:100F9800BA795E4B9A70FA795C4BDA703A7A5B4BA5
:100FA8001A717A7A594B5A71BA7A584B9A71FA7AF5
:100FB800564BDA713A7B554B1A727A7B534B5A72FD
:100FC800BA7B524B9A72B2E13A79504BDA727A791B
:100FD8004E4B1A73BA794D4B5A73FA794B4B9A7335
:100FE8003A7A4A4BDA737A7A484B1A74BA7A474B88
:100FF8005A74FA7A454B9A743A7B444BDA747A7B82
:10100800424B1A75BA7B414B5A7590E13A793F4B7E
:101018009A757A793D4BDA75BA793C4B1A76FA7932
:101028003A4B5A763A7A394B9A767A7A374BDA7655
:10103800BA7A364B1A77FA7A344B5A773A7B334B6B
:101048009A777A7B314BDA77BA7B304B83F820205A
:101058006DE13A792D4B83F821207A792B4B83F86F
:101068002220BA79294B83F82320FA79274B83F871
:1010780024203A7A254B83F825207A7A234B83F863
:101088002620BA7A214B83F82720FA7A1F4B83F857
:1010980028203A7B1D4B83F829207A7B1B4B83F849
:1010A8002A20BA7B194B83F82B2040E13A79174B59
:1010B80083F82C207A79154B83F82D20BA79134BB5
:1010C80083F82E20FA79114B83F82F203A7A0F4BA8
:1010D80083F830207A7A0D4B83F83120BA7A0B4B9B
:1010E80083F83220FA7A094B83F833203A7B074B8E
:1010F80083F834207A7B054B83F83520BA7B034B81
:1011080083F8362013E100BFD8000020EC0200204D
:101118003A79894B83F837207A79874B83F83820D6
:10112800BA79854B83F83920FA79834B83F83A20CA
:101138003A7A814B83F83B207A7A7F4B83F83C20BC
:10114800BA7A7D4B83F83D20FA7A7B4B83F83E20B0
:101158003A7B794B83F83F207A7B774B83F84020A2
:10116800BA7B754B83F84120E1E03A79724B83F8FA
:1011780042207A79704B83F84320BA796E4B83F812
:101188004420FA796C4B83F845203A7A6A4B83F805
:1011980046207A7A684B83F84720BA7A664B83F8F8
:1011A8004820FA7A644B83F849203A7B624B83F8EB
:1011B8004A207A7B604B83F84B20BA7B5E4B83F8DE
:1011C8004C20B4E03A795C4B83F84D207A795A4B3D
:1011D80083F84E20BA79584B83F84F20FA79564B4A
:1011E80083F850203A7A544B83F851207A7A524B3C
:1011F80083F85220BA7A504B83F85320FA7A4E4B30
:1012080083F854203A7B4C4B83F855207A7B4A4B21
:1012180083F85620BA7B484B83F8572087E03A7901
:10122800454B83F858207A79434B83F85920BA798B
:10123800414B83F85A20FA793F4B83F85B203A7A7E
:101248003D4B83F85C207A7A3B4B83F85D20BA7A71
:10125800394B83F85E20FA7A374B83F85F203A7B64
:10126800354B83F860207A7B334B83F86120BA7B57
:10127800314B83F862205AE03A792F4B83F8632088
:101288007A792D4B83F86420BA792B4B83F8652043
:10129800FA79294B83F866203A7A274B83F8672036
:1012A8007A7A254B83F86820BA7A234B83F8692029
:1012B800FA7A214B83F86A203A7B1F4B83F86B201C
:1012C8007A7B1D4B83F86C20BA7B1B4B83F86D200F
:1012D8002DE03A79184B83F86E207A79164B83F80B
:1012E8006F20BA79144B83F87020FA79124B83F87F
:1012F80071203A7A104B83F872207A7A0E4B83F871
:101308007320BA7A0C4B83F87420FA7A0A4B83F864
:1013180075203A7B084B83F876207A7B064B83F856
:101328007720BA7B044B83F8782000E000BF00BF29
:101338002037BD4680BD00BFEC020020DFF834D066
:10134800FFF7A4FD0C480D490D4A002302E0D458CC
:10135800C4500433C4188C42F9D30A4A0A4C0023F7
:1013680001E013600432A242FBD303F00FF9FFF748
:101378001DF9704700000220000000202C0000200A
:10138800244600082C0000206C030020FEE7000023
:1013980080B500AF0E4B1B680D4A43F40073136011
:1013A8000B4B1B680A4A43F480631360084B1B68A5
:1013B800074A43F480731360032000F04FF90F20AD
:1013C80000F008F8FFF742FB0023184680BD00BF75
:1013D800003C024080B582B000AF7860124B1A68BA
:1013E800124B1B7819464FF47A73B3FBF1F3B2FB37
:1013F800F3F3184600F067F90346002B01D00123E8
:101408000EE07B680F2B0AD8002279684FF0FF3076
:1014180000F02FF9064A7B681360002300E00123DF
:1014280018460837BD4680BD20000020280000204F
:101438002400002080B400AF064B1B781A46064BE8
:101448001B681344044A136000BFBD465DF8047B63
:10145800704700BF280000206803002080B400AF58
:10146800034B1B681846BD465DF8047B704700BFF8
:101478006803002080B584B000AF7860FFF7EEFF06
:10148800B8607B68FB60FB68B3F1FF3F05D00A4B8F
:101498001B781A46FB681344FB6000BFFFF7DEFFAA
:1014A8000246BB68D31AFA689A42F7D800BF00BF51
:1014B8001037BD4680BD00BF2800002080B485B02D
:1014C80000AF78607B6803F00703FB600C4BDB68B8
:1014D800BB60BA684FF6FF031340BB60FB681A0293
:1014E800BB68134343F0BF6343F40033BB60044A53
:1014F800BB68D36000BF1437BD465DF8047B7047F6
:1015080000ED00E080B400AF044BDB681B0A03F079
:1015180007031846BD465DF8047B704700ED00E000
:1015280080B483B000AF0346FB7197F90730002BF6
:101538000BDBFB7903F01F02074997F907305B09BA
:10154800012000FA02F241F8232000BF0C37BD4603
:101558005DF8047B704700BF00E100E080B483B011
:1015680000AF03463960FB7197F90730002B0ADB9F
:101578003B68DAB20C4997F907301201D2B20B4432
:1015880083F800230AE03B68DAB20849FB7903F0E4
:101598000F03043B1201D2B20B441A7600BF0C377A
:1015A800BD465DF8047B704700E100E000ED00E017
:1015B80080B489B000AFF860B9607A60FB6803F066
:1015C8000703FB61FB69C3F10703042B28BF04234E
:1015D800BB61FB690433062B02D9FB69033B00E0BE
:1015E80000237B614FF0FF32BB6902FA03F3DA4351
:1015F800BB681A407B699A404FF0FF317B6901FA5A
:1016080003F3D9437B680B40134318462437BD4680
:101618005DF8047B7047000080B582B000AF786049
:101628007B68013BB3F1807F01D301230FE00A4AB5
:101638007B68013B53600F214FF0FF30FFF78EFFAF
:10164800054B00229A60044B07221A6000231846B3
:101658000837BD4680BD00BF10E000E080B582B00D
:1016680000AF78607868FFF729FF00BF0837BD46EC
:1016780080BD80B586B000AF0346B9607A60FB7361
:1016880000237B61FFF73EFF78617A68B968786963
:10169800FFF78EFF024697F90F3011461846FFF7FD
:1016A8005DFF00BF1837BD4680BD80B582B000AF72
:1016B8000346FB7197F907301846FFF731FF00BF63
:1016C8000837BD4680BD80B582B000AF78607868C5
:1016D800FFF7A2FF034618460837BD4680BD000045
:1016E80080B586B000AF786000237B61FFF7B6FE57
:1016F80038617B68002B01D1012399E07B680222C5
:1017080083F835207B68002283F834207B681B68C7
:101718001A687B681B6822F001021A600FE0FFF765
:101728009DFE02463B69D31A052B08D97B68202207
:101738005A657B68032283F83520032378E07B68A9
:101748001B681B6803F00103002BE8D17B681B684A
:101758001B687B617A69384B13407B617B685A68E8
:101768007B689B681A437B68DB681A437B681B6944
:101778001A437B685B691A437B689B691A437B68D9
:10178800DB691A437B681B6A13437A6913437B61DD
:101798007B685B6A042B07D17B68DA6A7B681B6B02
:1017A80013437A6913437B617B681B687A691A6003
:1017B8007B681B685B697B617B6923F007037B613E
:1017C8007B685B6A7A6913437B617B685B6A042B7D
:1017D80017D17B689B6A7A6913437B617B68DB6AF4
:1017E800002B0ED0786800F001FB0346002B08D0D0
:1017F8007B6840225A657B68012283F835200123E3
:1018080016E07B681B687A695A61786800F0B8FA54
:101818000346FB607B68DB6D3F229A40FB689A6059
:101828007B6800225A657B68012283F835200023F3
:1018380018461837BD4680BD3F8010F080B586B089
:1018480000AFF860B9607A603B600023FB75FB6805
:101858009B6D3B61FB6893F83430012B01D1022367
:1018680040E0FB68012283F83420FB6893F83530A8
:10187800DBB2012B2FD1FB68022283F83520FB68ED
:1018880000225A653B687A68B968F86800F04AFA35
:10189800FB68DB6D3F229A403B699A60FB681B68D6
:1018A8001A68FB681B6842F016021A60FB681B6C1A
:1018B800002B07D0FB681B681A68FB681B6842F09E
:1018C80008021A60FB681B681A68FB681B6842F00C
:1018D80001021A6005E0FB68002283F83420022325
:1018E800FB75FB7D18461837BD4680BD80B584B0B2
:1018F80000AF78607B689B6DFB60FFF7AFFDB86059
:101908007B6893F83530DBB2022B08D07B688022E5
:101918005A657B68002283F83420012352E07B68F3
:101928001B681A687B681B6822F016021A607B68BD
:101938001B685A697B681B6822F080025A617B68C1
:101948001B6C002B03D17B689B6C002B07D07B683A
:101958001B681A687B681B6822F008021A607B689B
:101968001B681A687B681B6822F001021A6013E082
:10197800FFF774FD0246BB68D31A052B0CD97B68A8
:1019880020225A657B68032283F835207B68002271
:1019980083F83420032315E07B681B681B6803F079
:1019A8000103002BE4D17B68DB6D3F229A40FB6882
:1019B8009A607B68012283F835207B68002283F8CF
:1019C8003420002318461037BD4680BD80B483B04C
:1019D80000AF78607B6893F83530DBB2022B04D017
:1019E8007B6880225A6501230CE07B68052283F816
:1019F80035207B681B681A687B681B6822F0010227
:101A08001A60002318460C37BD465DF8047B704702
:101A180080B586B000AF78600023BB608E4B1B6832
:101A28008E4AA2FB03239B0A7B617B689B6D3B610B
:101A38003B691B68FB607B68DB6D08229A40FB688A
:101A48001340002B1AD07B681B681B6803F0040343
:101A5800002B13D07B681B681A687B681B6822F010
:101A680004021A607B68DB6D08229A403B699A6021
:101A78007B685B6D43F001027B685A657B68DB6DB0
:101A880001229A40FB681340002B12D07B681B6828
:101A98005B6903F08003002B0BD07B68DB6D0122B0
:101AA8009A403B699A607B685B6D43F002027B68F1
:101AB8005A657B68DB6D04229A40FB681340002B53
:101AC80012D07B681B681B6803F00203002B0BD045
:101AD8007B68DB6D04229A403B699A607B685B6D8A
:101AE80043F004027B685A657B68DB6D10229A40DC
:101AF800FB681340002B43D07B681B681B6803F00E
:101B08000803002B3CD07B68DB6D10229A403B69B0
:101B18009A607B681B681B6803F48023002B18D02D
:101B28007B681B681B6803F40023002B08D17B68C3
:101B38001B6C002B24D07B681B6C786898471FE0CF
:101B48007B689B6C002B1BD07B689B6C78689847E4
:101B580016E07B681B681B6803F48073002B07D1B1
:101B68007B681B681A687B681B6822F008021A6089
:101B78007B681B6C002B03D07B681B6C78689847CC
:101B88007B68DB6D20229A40FB681340002B00F035
:101B98008F807B681B681B6803F01003002B00F024
:101BA80087807B68DB6D20229A403B699A607B685E
:101BB80093F83530DBB2052B36D17B681B681A6881
:101BC8007B681B6822F016021A607B681B685A69DA
:101BD8007B681B6822F080025A617B681B6C002BB3
:101BE80003D17B689B6C002B07D07B681B681A6845
:101BF8007B681B6822F008021A607B68DB6D3F2255
:101C08009A403B699A607B68012283F835207B689B
:101C1800002283F834207B681B6D002B7ED07B6804
:101C28001B6D7868984779E07B681B681B6803F42C
:101C38008023002B1DD07B681B681B6803F40023DE
:101C4800002B0DD17B685B6C002B31D07B685B6C03
:101C5800786898472CE000BF20000020B5814E1B13
:101C68007B68DB6B002B23D07B68DB6B786898473D
:101C78001EE07B681B681B6803F48073002B0FD180
:101C88007B681B681A687B681B6822F010021A6060
:101C98007B68012283F835207B68002283F8342092
:101CA8007B68DB6B002B03D07B68DB6B786898471D
:101CB8007B685B6D002B32D07B685B6D03F00103A2
:101CC800002B22D07B68052283F835207B681B68AF
:101CD8001A687B681B6822F001021A60BB6801332E
:101CE800BB607A699A4207D37B681B681B6803F05C
:101CF8000103002BF2D100E000BF7B68012283F8CA
:101D080035207B68002283F834207B68DB6C002B4D
:101D180005D07B68DB6C7868984700E000BF18370F
:101D2800BD4680BD80B485B000AFF860B9607A6008
:101D38003B60FB681B681A68FB681B6822F48022FA
:101D48001A60FB681B683A685A60FB689B68402BFE
:101D580008D1FB681B687A689A60FB681B68BA68D8
:101D6800DA6007E0FB681B68BA689A60FB681B6862
:101D78007A68DA6000BF1437BD465DF8047B7047A7
:101D880080B485B000AF78607B681B68DBB2103B1D
:101D9800144AA2FB03231B09FB60134AFB68134484
:101DA8001B781A467B68DA65FB68032B09D97B68C0
:101DB8001B6823F47F7323F003031A1D7B689A655D
:101DC80007E07B681B6823F47F7323F003037A68BA
:101DD80093657B689B6D18461437BD465DF8047B98
:101DE800704700BFABAAAAAA0C46000880B485B009
:101DF80000AF78600023FB737B689B6ABB607B68DD
:101E08009B69002B1FD1BB68032B56D801A252F83F
:101E180023F000BF2D1E00083F1E00082D1E0008DD
:101E2800C31E00087B68DB6A03F08073002B46D072
:101E38000123FB7343E07B68DB6AB3F1C07F40D1C9
:101E48000123FB733DE07B689B69B3F5005F21D1FB
:101E5800BB68032B37D801A252F823F0751E00087F
:101E68007B1E0008751E00088D1E00080123FB73E9
:101E780030E07B68DB6A03F08073002B25D00123F8
:101E8800FB7322E07B68DB6AB3F1C07F1FD10123BB
:101E9800FB731CE0BB68022B03D9BB68032B03D080
:101EA80018E00123FB7315E07B68DB6A03F080739D
:101EB800002B0ED00123FB730BE000BF0AE000BF2C
:101EC80008E000BF06E000BF04E000BF02E000BF7A
:101ED80000E000BFFB7B18461437BD465DF8047B65
:101EE800704700BF80B489B000AF786039600023C4
:101EF8007B6100233B610023BB610023FB616BE135
:101F08000122FB6902FA03F37B613B681B687A696B
:101F180013403B613A697B699A4240F05A813B68B9
:101F28005B6803F00303012B05D03B685B6803F093
:101F38000303022B30D17B689B68BB61FB695B00A4
:101F4800032202FA03F3DB43BA691340BB613B681F
:101F5800DA68FB695B0002FA03F3BA691343BB61F1
:101F68007B68BA699A607B685B68BB610122FB6920
:101F780002FA03F3DB43BA691340BB613B685B6851
:101F88001B0903F00102FB6902FA03F3BA69134360
:101F9800BB617B68BA695A603B685B6803F00303FE
:101FA800032B17D07B68DB68BB61FB695B000322EE
:101FB80002FA03F3DB43BA691340BB613B689A68D2
:101FC800FB695B0002FA03F3BA691343BB617B68E0
:101FD800BA69DA603B685B6803F00303022B23D11C
:101FE800FB69DA087B68083253F82230BB61FB6969
:101FF80003F007039B000F2202FA03F3DB43BA69DD
:102008001340BB613B681A69FB6903F007039B0037
:1020180002FA03F3BA691343BB61FB69DA087B6808
:102028000832B96943F822107B681B68BB61FB69F9
:102038005B00032202FA03F3DB43BA691340BB6176
:102048003B685B6803F00302FB695B0002FA03F379
:10205800BA691343BB617B68BA691A603B685B68FD
:1020680003F44033002B00F0B4800023FB60604B86
:102078005B6C5F4A43F4804353645D4B5B6C03F4D1
:102088008043FB60FB685B4AFB699B08023352F89C
:102098002330BB61FB6903F003039B000F2202FAA4
:1020A80003F3DB43BA691340BB617B68524A93422E
:1020B8002BD07B68514A934225D07B68504A934283
:1020C8001FD07B684F4A934219D07B684E4A93428F
:1020D80013D07B684D4A93420DD07B684C4A93429B
:1020E80007D07B684B4A934201D107230EE00823AF
:1020F8000CE006230AE0052308E0042306E0032396
:1021080004E0022302E0012300E00023FA6902F060
:10211800030292009340BA691343BB613549FB69D6
:102128009B080233BA6941F823203B4B9B68BB618B
:102138003B69DB43BA691340BB613B685B6803F4E6
:102148008013002B03D0BA693B691343BB61324A41
:10215800BB699360304BDB68BB613B69DB43BA69A1
:102168001340BB613B685B6803F40013002B03D08A
:10217800BA693B691343BB61274ABB69D360264BE5
:102188005B68BB613B69DB43BA691340BB613B6871
:102198005B6803F40033002B03D0BA693B6913432F
:1021A800BB611D4ABB6953601B4B1B68BB613B6924
:1021B800DB43BA691340BB613B685B6803F4803357
:1021C800002B03D0BA693B691343BB61124ABB6950
:1021D8001360FB690133FB61FB690F2B7FF690AE3F
:1021E80000BF00BF2437BD465DF8047B704700BFC1
:1021F800003802400038014000000240000402405C
:1022080000080240000C0240001002400014024086
:1022180000180240001C0240003C014080B483B01A
:1022280000AF78600B467B8013467B707B78002B71
:1022380003D07A887B689A6103E07B881A047B68FC
:102248009A6100BF0C37BD465DF8047B704780B4C7
:1022580085B000AF78600B467B807B685B69FB606C
:102268007A88FB6813401A04FB68D9437B880B40C3
:102278001A437B689A6100BF1437BD465DF8047B3A
:102288007047000080B586B000AF78607B68002B8F
:1022980001D1012367E27B681B6803F00103002B6F
:1022A80075D0884B9B6803F00C03042B0CD0854B2E
:1022B8009B6803F00C03082B12D1824B5B6803F474
:1022C8008003B3F5800F0BD17E4B1B6803F40033FA
:1022D800002B5BD07B685B68002B57D1012342E25F
:1022E8007B685B68B3F5803F06D1764B1B68754AFF
:1022F80043F4803313601DE07B685B68B3F5A02F5F
:102308000CD1704B1B686F4A43F4802313606D4BEC
:102318001B686C4A43F4803313600BE0694B1B68FD
:10232800684A23F480331360664B1B68654A23F4BC
:10233800802313607B685B68002B13D0FFF78EF84F
:10234800386108E0FFF78AF802463B69D31A642B24
:1023580001D9032307E25B4B1B6803F40033002B0E
:10236800F0D014E0FFF77AF8386108E0FFF776F864
:1023780002463B69D31A642B01D90323F3E1514B7D
:102388001B6803F40033002BF0D100E000BF7B682A
:102398001B6803F00203002B63D04A4B9B6803F0D1
:1023A8000C03002B0BD0474B9B6803F00C03082B46
:1023B8001CD1444B5B6803F48003002B16D1414BBE
:1023C8001B6803F00203002B05D07B68DB68012B38
:1023D80001D00123C7E13B4B1B6823F0F8027B685F
:1023E8001B69DB00374913430B603AE07B68DB6805
:1023F800002B20D0344B01221A60FFF72FF83861E8
:1024080008E0FFF72BF802463B69D31A022B01D9E3
:102418000323A8E12B4B1B6803F00203002BF0D029
:10242800284B1B6823F0F8027B681B69DB002549F1
:1024380013430B6015E0244B00221A60FFF70EF8D7
:10244800386108E0FFF70AF802463B69D31A022B05
:1024580001D9032387E11B4B1B6803F00203002B00
:10246800F0D17B681B6803F00803002B36D07B682B
:102478005B69002B16D0154B01221A60FEF7EEFFA0
:10248800386108E0FEF7EAFF02463B69D31A022BDF
:1024980001D9032367E10B4B5B6F03F00203002BA9
:1024A800F0D01BE0094B00221A60FEF7D7FF386115
:1024B8000EE0FEF7D3FF02463B69D31A022B07D979
:1024C800032350E10038024000004742800E474293
:1024D800884B5B6F03F00203002BEAD17B681B6813
:1024E80003F00403002B00F097800023FB75814B59
:1024F8001B6C03F08053002B0FD10023BB607D4B76
:102508001B6C7C4A43F0805313647A4B1B6C03F0BA
:102518008053BB60BB680123FB75774B1B6803F4D2
:102528008073002B18D1744B1B68734A43F4807373
:102538001360FEF793FF386108E0FEF78FFF02464D
:102548003B69D31A022B01D903230CE16A4B1B68A0
:1025580003F48073002BF0D07B689B68012B06D1B5
:10256800644B1B6F634A43F0010313671CE07B68ED
:102578009B68052B0CD15F4B1B6F5E4A43F004032D
:1025880013675C4B1B6F5B4A43F0010313670BE057
:10259800584B1B6F574A23F001031367554B1B6FAA
:1025A800544A23F0040313677B689B68002B15D0FB
:1025B800FEF754FF38610AE0FEF750FF02463B6918
:1025C800D31A41F28832934201D90323CBE0494B15
:1025D8001B6F03F00203002BEED014E0FEF73EFF62
:1025E80038610AE0FEF73AFF02463B69D31A41F226
:1025F8008832934201D90323B5E03E4B1B6F03F0A9
:102608000203002BEED1FB7D012B05D1394B1B6C4E
:10261800384A23F0805313647B689B69002B00F0D1
:10262800A180344B9B6803F00C03082B5CD07B68BB
:102638009B69022B41D1314B00221A60FEF70EFF35
:10264800386108E0FEF70AFF02463B69D31A022BFD
:1026580001D9032387E0274B1B6803F00073002B85
:10266800F0D17B68DA697B681B6A1A437B685B6A0E
:102678009B011A437B689B6A5B08013B1B041A4356
:102688007B68DB6A1B061B4913434B601B4B01220B
:102698001A60FEF7E3FE386108E0FEF7DFFE024647
:1026A8003B69D31A022B01D903235CE0114B1B6849
:1026B80003F00073002BF0D054E0104B00221A6096
:1026C800FEF7CCFE386108E0FEF7C8FE02463B691B
:1026D800D31A022B01D9032345E0064B1B6803F0EC
:1026E8000073002BF0D13DE07B689B69012B07D17B
:1026F800012338E000380240007000406000474283
:102708001B4B5B68FB607B689B69012B28D0FB68CF
:1027180003F480027B68DB699A4221D1FB6803F0ED
:102728003F027B681B6A9A421AD1FA6847F6C0735F
:1027380013407A68526A9201934211D1FB6803F4FC
:1027480040327B689B6A5B08013B1B049A4207D1B5
:10275800FB6803F070627B68DB6A1B069A4201D053
:10276800012300E0002318461837BD4680BD00BF8E
:102778000038024080B584B000AF786039607B686B
:10278800002B01D10123CCE0684B1B6803F0070341
:102798003A689A420CD9654B3A68D2B21A70634BC0
:1027A8001B6803F007033A689A4201D00123B8E096
:1027B8007B681B6803F00203002B20D07B681B6832
:1027C80003F00403002B05D0594B9B68584A43F487
:1027D800E05393607B681B6803F00803002B05D067
:1027E800534B9B68524A43F460439360504B9B6839
:1027F80023F0F0027B689B684D4913438B607B682C
:102808001B6803F00103002B44D07B685B68012B35
:1028180007D1474B1B6803F40033002B19D1012360
:102828007FE07B685B68022B03D07B685B68032BC7
:1028380007D13F4B1B6803F00073002B09D101231C
:102848006FE03B4B1B6803F00203002B01D101230F
:1028580067E0374B9B6823F003027B685B68344969
:1028680013438B60FEF7FAFDF8600AE0FEF7F6FD09
:102878000246FB68D31A41F28832934201D90323F6
:102888004FE02B4B9B6803F00C027B685B689B0056
:102898009A42EBD1254B1B6803F007033A689A422A
:1028A8000CD2224B3A68D2B21A70204B1B6803F044
:1028B80007033A689A4201D0012332E07B681B681B
:1028C80003F00403002B08D0194B9B6823F4E05253
:1028D8007B68DB68164913438B607B681B6803F0D1
:1028E8000803002B09D0124B9B6823F460427B68D5
:1028F8001B69DB000E4913438B6000F021F8024688
:102908000B4B9B681B0903F00F030A49CB5C22FAA7
:1029180003F3094A1360094B1B681846FEF75AFD72
:10292800002318461037BD4680BD00BF003C02405A
:1029380000380240F4450008200000202400002050
:102948002DE9B04F94B000AF00237B640023FB64F3
:1029580000233B640023BB64794B9B6803F00C03A2
:10296800082B0DD0082B00F2E180002B02D0042B9D
:1029780003D0DBE0734BBB64DBE0734BBB64D8E094
:102988006F4B5B6803F03F037B646D4B5B6803F43C
:102998008003002B63D06A4B5B689B090022BB63F2
:1029A800FA63BB6BC3F308033B6300237B63D7E97C
:1029B8000C4522462B464FF000004FF0000159010C
:1029C80041EAD261500102460B462146511A39614B
:1029D800294663EB01037B614FF000024FF00003CF
:1029E800D7E904AB59468B01514643EA91635146F6
:1029F8008A015146B2EB0108594663EB01094FF0D1
:102A080000024FF000034FEAC90343EA58734FEA44
:102A1800C80290469946234618EB0303BB602B4631
:102A280049EB0303FB604FF000024FF00003D7E9C6
:102A3800024529464B02214643EAD15321464A0220
:102A4800104619467B6C0022BB62FA62D7E90A235A
:102A5800FDF7B6FB02460B461346FB6458E0384BBD
:102A68005B689B09002218461146C0F308033B62C5
:102A780000237B62D7E9088942464B464FF00000A5
:102A88004FF00001590141EAD261500102460B465C
:102A98004146B2EB010A494663EB010B4FF00002D5
:102AA8004FF000034FEA8B1343EA9A634FEA8A1206
:102AB800B2EB0A0463EB0B054FF000024FF0000382
:102AC800EB0043EA5473E20014461D464346E318FC
:102AD8003B604B4645EB03037B604FF000024FF031
:102AE8000003D7E9004529468B02214643EA915362
:102AF80021468A02104619467B6C0022BB61FA61A6
:102B0800D7E90623FDF75CFB02460B461346FB6438
:102B18000B4B5B681B0C03F0030301335B003B6446
:102B2800FA6C3B6CB2FBF3F3BB6402E0054BBB648D
:102B380000BFBB6C18465037BD46BDE8B08F00BF1C
:102B4800003802400024F40000127A0080B400AF7C
:102B5800034B1B681846BD465DF8047B704700BFF1
:102B68002000002080B500AFFFF7F0FF0246054BBC
:102B78009B689B0A03F007030349CB5C22FA03F323
:102B8800184680BD003802400446000880B500AFF2
:102B9800FFF7DCFF0246054B9B685B0B03F007035E
:102BA8000349CB5C22FA03F3184680BD0038024083
:102BB8000446000880B582B000AF78607B68002BBF
:102BC80001D1012341E07B6893F83D30DBB2002B53
:102BD80006D17B68002283F83C207868FDF75EFF09
:102BE8007B68022283F83D207B681A687B6804337F
:102BF8001946104600F0B6F97B68012283F8462092
:102C08007B68012283F83E207B68012283F83F20FD
:102C18007B68012283F840207B68012283F84120E9
:102C28007B68012283F842207B68012283F84320D5
:102C38007B68012283F844207B68012283F84520C1
:102C48007B68012283F83D20002318460837BD46DB
:102C580080BD000080B485B000AF78607B6893F8D1
:102C68003D30DBB2012B01D001234EE07B6802220C
:102C780083F83D207B681B68DA687B681B6842F034
:102C88000102DA607B681B68234A934222D07B6882
:102C98001B68B3F1804F1DD07B681B681F4A9342A5
:102CA80018D07B681B681E4A934213D07B681B6848
:102CB8001C4A93420ED07B681B681B4A934209D07A
:102CC8007B681B68194A934204D07B681B68184AC2
:102CD800934211D17B681B689B6803F00703FB6074
:102CE800FB68062B10D07B681B681A687B681B681A
:102CF80042F001021A6007E07B681B681A687B686B
:102D08001B6842F001021A60002318461437BD46BA
:102D18005DF8047B704700BF0000014000040040DC
:102D280000080040000C0040000401400040014041
:102D38000018004080B584B000AF78607B681B68DD
:102D4800DB68FB607B681B681B69BB60BB6803F0C2
:102D58000203002B20D0FB6803F00203002B1BD0DA
:102D68007B681B686FF002021A617B6801221A7780
:102D78007B681B689B6903F00303002B03D078680A
:102D880000F0D2F805E0786800F0C4F8786800F040
:102D9800D5F87B6800221A77BB6803F00403002B80
:102DA80020D0FB6803F00403002B1BD07B681B6852
:102DB8006FF004021A617B6802221A777B681B682D
:102DC8009B6903F44073002B03D0786800F0ACF8DB
:102DD80005E0786800F09EF8786800F0AFF87B6846
:102DE80000221A77BB6803F00803002B20D0FB6889
:102DF80003F00803002B1BD07B681B686FF00802E8
:102E08001A617B6804221A777B681B68DB6903F008
:102E18000303002B03D0786800F086F805E0786893
:102E280000F078F8786800F089F87B6800221A7753
:102E3800BB6803F01003002B20D0FB6803F01003DD
:102E4800002B1BD07B681B686FF010021A617B682F
:102E580008221A777B681B68DB6903F44073002B30
:102E680003D0786800F060F805E0786800F052F860
:102E7800786800F063F87B6800221A77BB6803F073
:102E88000103002B0CD0FB6803F00103002B07D0D3
:102E98007B681B686FF001021A617868FDF764FBB4
:102EA800BB6803F08003002B0CD0FB6803F08003A1
:102EB800002B07D07B681B686FF080021A61786866
:102EC80000F082F9BB6803F04003002B0CD0FB68CC
:102ED80003F04003002B07D07B681B686FF04002AB
:102EE8001A61786800F034F8BB6803F02003002BFF
:102EF8000CD0FB6803F02003002B07D07B681B680D
:102F08006FF020021A61786800F054F900BF10379A
:102F1800BD4680BD80B483B000AF786000BF0C3779
:102F2800BD465DF8047B704780B483B000AF78601D
:102F380000BF0C37BD465DF8047B704780B483B092
:102F480000AF786000BF0C37BD465DF8047B704762
:102F580080B483B000AF786000BF0C37BD465DF821
:102F6800047B704780B485B000AF786039607B68B7
:102F78001B68FB607B68464A934213D07B68B3F1B9
:102F8800804F0FD07B68434A93420BD07B68424AFC
:102F9800934207D07B68414A934203D07B68404AFA
:102FA800934208D1FB6823F07003FB603B685B68C1
:102FB800FA681343FB607B68354A93422BD07B68E1
:102FC800B3F1804F27D07B68324A934223D07B6885
:102FD800314A93421FD07B68304A93421BD07B68AA
:102FE8002F4A934217D07B682E4A934213D07B68AE
:102FF8002D4A93420FD07B682C4A93420BD07B68B2
:103008002B4A934207D07B682A4A934203D07B68B5
:10301800294A934208D1FB6823F44073FB603B685C
:10302800DB68FA681343FB60FB6823F080023B68A7
:103038005B691343FB607B68FA681A603B689A68AF
:103048007B68DA623B681A687B689A627B68104A18
:10305800934203D07B68124A934203D13B681A69B2
:103068007B681A637B6801225A617B681B6903F0DD
:103078000103012B05D17B681B6923F001027B68E2
:103088001A6100BF1437BD465DF8047B704700BF66
:10309800000001400004004000080040000C00400F
:1030A8000004014000400140004401400048014044
:1030B80000180040001C00400020004080B485B08B
:1030C80000AF786039607B6893F83C30012B01D100
:1030D80002235AE07B68012283F83C207B680222A5
:1030E80083F83D207B681B685B68FB607B681B6816
:1030F8009B68BB60FB6823F07003FB603B681B6840
:10310800FA681343FB607B681B68FA685A607B683F
:103118001B68214A934222D07B681B68B3F1804F19
:103128001DD07B681B681D4A934218D07B681B68BA
:103138001B4A934213D07B681B681A4A93420ED0ED
:103148007B681B68184A934209D07B681B68174A3A
:10315800934204D07B681B68154A93420CD1BB6824
:1031680023F08003BB603B685B68BA681343BB60AD
:103178007B681B68BA689A607B68012283F83D20E7
:103188007B68002283F83C20002318461437BD468C
:103198005DF8047B704700BF000001400004004058
:1031A80000080040000C00400004014000400140BD
:1031B8000018004080B483B000AF786000BF0C37BF
:1031C800BD465DF8047B704780B483B000AF78607B
:1031D80000BF0C37BD465DF8047B704780B582B0F0
:1031E80000AF78607B68002B01D1012342E07B6847
:1031F80093F84130DBB2002B06D17B68002283F8BC
:1032080040207868FDF772FC7B68242283F841200F
:103218007B681B68DA687B681B6822F40052DA60F6
:10322800786800F037FF7B681B681A697B681B6841
:1032380022F490421A617B681B685A697B681B6894
:1032480022F02A025A617B681B68DA687B681B686F
:1032580042F40052DA607B6800225A647B682022BC
:1032680083F841207B68202283F842207B68002273
:103278005A63002318460837BD4680BD80B58CB018
:1032880000AFF860B9601346FB80FB6893F84130E3
:10329800DBB2202B56D1BB68002B02D0FB88002B59
:1032A80001D101234FE0BA68FB681A62FB68FA880B
:1032B8009A84FB68FA88DA84FB6800225A64FB68FF
:1032C800212283F84120FB689B6B214ADA63FB6863
:1032D8009B6B204A1A64FB689B6B1F4ADA64FB6885
:1032E8009B6B00221A6507F10803FB62FB68986B69
:1032F800FB6A1968FB681B6804331A46FB88FEF7EB
:103308009DFAFB681B686FF040021A60FB681B6837
:103318001433BB61BB6953E8003F7B617B6943F0B1
:103328008003BB62FB681B681433BA6A7A623B622B
:10333800396A7A6A41E80023FB61FB69002BE5D111
:10334800002300E0022318463037BD4680BD00BF89
:1033580029390008C3390008473B000880B584B004
:1033680000AFF860B9601346FB80FB6893F8423001
:10337800DBB2202B12D1BB68002B02D0FB88002BBC
:1033880001D101230BE0FB6800221A63FB881A466F
:10339800B968F86800F01EFC034600E002231846EE
:1033A8001037BD4680BD000080B5BAB000AF786068
:1033B8007B681B681B68C7F8E4307B681B68DB68A0
:1033C800C7F8E0307B681B685B69C7F8DC3000230E
:1033D800C7F8D8300023C7F8D430D7F8E43003F062
:1033E8000F03C7F8D830D7F8D830002B0FD1D7F84B
:1033F800E43003F02003002B09D0D7F8E03003F0C5
:103408002003002B03D0786800F085FD5BE2D7F835
:10341800D830002B00F0DE80D7F8DC3003F0010351
:10342800002B06D1D7F8E03003F49073002B00F09E
:10343800D180D7F8E43003F00103002B0BD0D7F884
:10344800E03003F48073002B05D07B685B6C43F09D
:1034580001027B685A64D7F8E43003F00403002BB8
:103468000BD0D7F8DC3003F00103002B05D07B68C4
:103478005B6C43F002027B685A64D7F8E43003F0CF
:103488000203002B0BD0D7F8DC3003F00103002B2C
:1034980005D07B685B6C43F004027B685A64D7F8FC
:1034A800E43003F00803002B11D0D7F8E03003F024
:1034B8002003002B05D1D7F8DC3003F00103002BE3
:1034C80005D07B685B6C43F008027B685A647B68B4
:1034D8005B6C002B00F0F281D7F8E43003F0200396
:1034E800002B08D0D7F8E03003F02003002B02D0DF
:1034F800786800F010FD7B681B685B6903F0400387
:10350800402B0CBF01230023DBB2C7F8D4307B6803
:103518005B6C03F00803002B03D1D7F8D430002BE1
:103528004FD0786800F018FC7B681B685B6903F073
:103538004003402B41D17B681B681433C7F89C308B
:10354800D7F89C3053E8003FC7F89830D7F8983040
:1035580023F04003C7F8D0307B681B681433D7F8D2
:10356800D020C7F8A820C7F8A430D7F8A410D7F8F7
:10357800A82041E80023C7F8A030D7F8A030002BD6
:10358800D9D17B68DB6B002B13D07B68DB6B7E4A61
:103598001A657B68DB6B1846FEF718FA0346002BA2
:1035A80016D07B68DB6B1B6D7A68D26B1046984728
:1035B8000EE0786800F09EF90AE0786800F09AF961
:1035C80006E0786800F096F97B6800225A6475E195
:1035D80000BF73E17B681B6B012B40F04F81D7F86C
:1035E800E43003F01003002B00F04881D7F8E030F6
:1035F80003F01003002B00F041810023BB607B68BF
:103608001B681B68BB607B681B685B68BB60BB682A
:103618007B681B685B6903F04003402B40F0B68071
:103628007B68DB6B1B685B68A7F8BE30B7F8BE30F9
:10363800002B00F045817B689B8DB7F8BE209A422D
:1036480080F03E817B68B7F8BE20DA857B68DB6B4B
:10365800DB69B3F5807F00F088807B681B680C33DA
:10366800C7F88830D7F8883053E8003FC7F8843067
:10367800D7F8843023F48073C7F8B8307B681B68A8
:103688000C33D7F8B820C7F89420C7F89030D7F88B
:103698009010D7F8942041E80023C7F88C30D7F869
:1036A8008C30002BD9D17B681B6814337B677B6F08
:1036B80053E8003F3B673B6F23F00103C7F8B43082
:1036C8007B681B681433D7F8B420C7F88020FB67E1
:1036D800F96FD7F8802041E80023BB67BB6F002B48
:1036E800E1D17B681B6814333B663B6E53E8003FAF
:1036F800FB65FB6D23F04003C7F8B0307B681B689F
:103708001433D7F8B020FA66BB66B96EFA6E41E892
:1037180000237B667B6E002BE3D17B68202283F835
:1037280042207B6800221A637B681B680C33FB64A9
:10373800FB6C53E8003FBB64BB6C23F01003C7F875
:10374800AC307B681B680C33D7F8AC20BA657B6556
:10375800796DBA6D41E800233B653B6D002BE3D1E1
:103768007B68DB6B1846FEF7C1F87B6802225A6358
:103778007B689A8D7B68DB8D9BB2D31A9BB2194606
:10378800786800F0C1F89BE0273E00087B689A8DB6
:103798007B68DB8D9BB2D31AA7F8CE307B68DB8DB4
:1037A8009BB2002B00F08E80B7F8CE30002B00F0D3
:1037B80089807B681B680C33BB63BB6B53E8003F95
:1037C8007B637B6B23F49073C7F8C8307B681B68F6
:1037D8000C33D7F8C8207A643B64396C7A6C41E8BA
:1037E8000023FB63FB6B002BE3D17B681B6814335E
:1037F8007B627B6A53E8003F3B623B6A23F001032C
:10380800C7F8C4307B681B681433D7F8C4203A6300
:10381800FB62F96A3A6B41E80023BB62BB6A002B82
:10382800E3D17B68202283F842207B6800221A6358
:103838007B681B680C333B613B6953E8003FFB60C6
:10384800FB6823F01003C7F8C0307B681B680C3393
:10385800D7F8C020FA61BB61B969FA6941E8002369
:103868007B617B69002BE3D17B6802225A63B7F83E
:10387800CE301946786800F047F823E0D7F8E430EE
:1038880003F08003002B09D0D7F8E03003F0800361
:10389800002B03D0786800F0D6FA14E0D7F8E430AB
:1038A80003F04003002B0ED0D7F8E03003F04003BC
:1038B800002B08D0786800F016FB04E000BF02E097
:1038C80000BF00E000BFE837BD4680BD80B483B0CC
:1038D80000AF786000BF0C37BD465DF8047B7047C9
:1038E80080B483B000AF786000BF0C37BD465DF888
:1038F800047B704780B483B000AF786000BF0C379A
:10390800BD465DF8047B704780B483B000AF786033
:103918000B467B8000BF0C37BD465DF8047B7047C3
:1039280080B590B000AF78607B689B6BFB637B6869
:103938001B681B6803F48073002B37D1FB6B0022D4
:10394800DA84FB6B1B6814337B627B6A53E8003FA5
:103958003B623B6A23F08003BB63FB6B1B68143339
:10396800BA6B3A63FB62F96A3A6B41E80023BB62BF
:10397800BB6A002BE5D1FB6B1B680C333B613B69D1
:1039880053E8003FFB60FB6843F040037B63FB6B3D
:103998001B680C337A6BFA61BB61B969FA6941E853
:1039A80000237B617B69002BE5D102E0F86BFCF713
:1039B8007FFD00BF4037BD4680BD80B584B000AFF5
:1039C80078607B689B6BFB60F868FFF77FFF00BF40
:1039D8001037BD4680BD80B59CB000AF78607B686D
:1039E8009B6BFB667B681B681B6803F48073002B6A
:1039F80072D1FB6E0022DA85FB6E1B680C33FB6408
:103A0800FB6C53E8003FBB64BB6C23F48073BB665C
:103A1800FB6E1B680C33BA6EBA657B65796DBA6D3F
:103A280041E800233B653B6D002BE5D1FB6E1B682D
:103A38001433BB63BB6B53E8003F7B637B6B23F0A2
:103A480001037B66FB6E1B6814337A6E7A643B64F1
:103A5800396C7A6C41E80023FB63FB6B002BE5D1E2
:103A6800FB6E1B6814337B627B6A53E8003F3B6242
:103A78003B6A23F040033B66FB6E1B6814333A6EC7
:103A88003A63FB62F96A3A6B41E80023BB62BB6A9E
:103A9800002BE5D1FB6E202283F84220FB6E1B6BC6
:103AA800012B19D1FB6E1B680C333B613B6953E852
:103AB800003FFB60FB6823F01003FB65FB6E1B688F
:103AC8000C33FA6DFA61BB61B969FA6941E8002300
:103AD8007B617B69002BE5D1FB6E00225A63FB6E8C
:103AE8001B6B012B06D1FB6E9B8D1946F86EFFF7F9
:103AF8000BFF02E0F86EFCF7FFFC00BF7037BD4615
:103B080080BD80B584B000AF78607B689B6BFB603C
:103B1800FB6801225A63FB681B6B012B08D1FB6809
:103B28009B8D5B089BB21946F868FFF7EDFE02E033
:103B3800F868FFF7D5FE00BF1037BD4680BD80B5D9
:103B480084B000AF78600023FB607B689B6BBB6030
:103B5800BB681B685B6903F08003802B0CBF0123E3
:103B68000023DBB2FB60BB6893F84130DBB2212B4A
:103B780008D1FB68002B05D0BB680022DA84B8683E
:103B880000F0C2F8BB681B685B6903F04003402B78
:103B98000CBF01230023DBB2FB60BB6893F8423003
:103BA800DBB2222B08D1FB68002B05D0BB680022B2
:103BB800DA85B86800F0D0F8BB685B6C43F0100297
:103BC800BB685A64B868FFF795FE00BF1037BD465A
:103BD80080BD000080B598B000AFF860B9601346AA
:103BE800FB80BA68FB689A62FB68FA889A85FB686A
:103BF80000225A64FB68222283F84220FB68DB6BB0
:103C08003E4ADA63FB68DB6B3D4A1A64FB68DB6B90
:103C18003C4ADA64FB68DB6B00221A6507F108038B
:103C2800FB65FB68D86BFB681B6804331946FB6DA2
:103C38001A68FB88FDF702FE00233B61FB681B68DE
:103C48001B683B61FB681B685B683B613B69FB6801
:103C58001B69002B19D0FB681B680C333B643B6C59
:103C680053E8003FFB63FB6B43F48073BB65FB6861
:103C78001B680C33BA6DFA64BB64B96CFA6C41E822
:103C880000237B647B6C002BE5D1FB681B68143335
:103C9800FB62FB6A53E8003FBB62BB6A43F0010367
:103CA8007B65FB681B6814337A6DBA637B63796B39
:103CB800BA6B41E800233B633B6B002BE5D1FB6803
:103CC8001B681433BB61BB6953E8003F7B617B69A8
:103CD80043F040033B65FB681B6814333A6D7A6216
:103CE8003B62396A7A6A41E80023FB61FB69002B71
:103CF800E5D1002318466037BD4680BDDF3900088E
:103D08000B3B0008473B000880B489B000AF7860DF
:103D18007B681B680C33FB60FB6853E8003FBB60A3
:103D2800BB6823F0C003FB617B681B680C33FA692E
:103D3800BA617B617969BA6941E800233B613B69F3
:103D4800002BE5D17B68202283F8412000BF24376F
:103D5800BD465DF8047B704780B495B000AF7860CD
:103D68007B681B680C337B637B6B53E8003F3B63CA
:103D78003B6B23F49073FB647B681B680C33FA6C11
:103D88003A64FB63F96B3A6C41E80023BB63BB6B95
:103D9800002BE5D17B681B6814333B623B6A53E810
:103DA800003FFB61FB6923F00103BB647B681B6870
:103DB8001433BA6CFA62BB62B96AFA6A41E8002342
:103DC8007B627B6A002BE5D17B681B6B012B19D1C9
:103DD8007B681B680C33FB60FB6853E8003FBB60E3
:103DE800BB6823F010037B647B681B680C337A6C18
:103DF800BA617B617969BA6941E800233B613B6933
:103E0800002BE5D17B68202283F842207B680022C2
:103E18001A6300BF5437BD465DF8047B704780B510
:103E280084B000AF78607B689B6BFB60FB68002206
:103E3800DA85FB680022DA84F868FFF75BFD00BFCB
:103E48001037BD4680BD80B485B000AF78607B6810
:103E580093F84130DBB2212B3ED17B689B68B3F5E8
:103E6800805F14D17B681B69002B10D17B681B6AAB
:103E7800FB60FB681B881A467B681B68C2F3080254
:103E88005A607B681B6A9A1C7B681A6208E07B6828
:103E98001B6A591C7A6811621A787B681B685A6019
:103EA8007B68DB8C9BB2013B9BB27A681946D18454
:103EB800002B0FD17B681B68DA687B681B6822F0CF
:103EC8008002DA607B681B68DA687B681B6842F0EE
:103ED8004002DA60002300E0022318461437BD468A
:103EE8005DF8047B704780B582B000AF78607B686E
:103EF8001B68DA687B681B6822F04002DA607B681E
:103F0800202283F841207868FCF7D2FA002318466B
:103F18000837BD4680BD80B58CB000AF78607B683F
:103F280093F84230DBB2222B40F0AE807B689B686E
:103F3800B3F5805F17D17B681B69002B13D1002371
:103F4800FB627B689B6ABB627B681B685B689BB291
:103F5800C3F308039AB2BB6A1A807B689B6A9A1CEF
:103F68007B689A6226E07B689B6AFB620023BB62DF
:103F78007B689B68B3F5805F07D07B689B68002BE4
:103F88000AD17B681B69002B06D17B681B685B68BC
:103F9800DAB2FB6A1A7008E07B681B685B68DBB200
:103FA80003F07F03DAB2FB6A1A707B689B6A5A1CBB
:103FB8007B689A627B68DB8D9BB2013B9BB27A6817
:103FC8001946D185002B5DD17B681B68DA687B6850
:103FD8001B6822F02002DA607B681B68DA687B685D
:103FE8001B6822F48072DA607B681B685A697B68F8
:103FF8001B6822F001025A617B68202283F8422064
:104008007B6800225A637B681B6B012B35D17B6868
:1040180000221A637B681B680C337B617B6953E859
:10402800003F3B613B6923F010037B627B681B68A0
:104038000C337A6A3A62FB61F9693A6A41E800230B
:10404800BB61BB69002BE5D17B681B681B6803F06B
:104058001003102B0AD10023FB607B681B681B68C8
:10406800FB607B681B685B68FB60FB687B689B8DFB
:1040780019467868FFF748FC02E07868FCF73CFAD4
:10408800002302E0002300E0022318463037BD4633
:1040980080BD00002DE9B04FC0B000AFC7F8F400F4
:1040A800D7F8F4301B681B6923F44050D7F8F43074
:1040B800D968D7F8F4301A6840EA01031361D7F8D1
:1040C800F4309A68D7F8F4301B691A43D7F8F430FB
:1040D8005B691A43D7F8F430DB691343C7F8F83043
:1040E800D7F8F4301B68DB6823F4164121F00C0183
:1040F800D7F8F4301A68D7F8F8300B43D360D7F8FC
:10410800F4301B685B6923F44070D7F8F430996980
:10411800D7F8F4301A6840EA01035361D7F8F4304D
:104128001A688F4B9A4205D0D7F8F4301A688D4B2D
:104138009A4204D1FEF72AFDC7F8FC0003E0FEF717
:1041480011FDC7F8FC00D7F8F430DB69B3F5004F70
:1041580040F00C81D7F8FC300022C7F8E830C7F8E7
:10416800EC20D7E93A4522462B469118B9655B41C0
:10417800FB65D7E91623214612EB0108294643EBD4
:1041880001094FF000024FF000034FEAC90343EA68
:1041980058734FEAC80290469946234618EB030322
:1041A800C7F8E0302B4649EB0303C7F8E430D7F8EB
:1041B800F4305B680022C7F8D830C7F8DC20D7E9AC
:1041C80036120B46DB183B65134642EB03037B654F
:1041D800D7E91423D7E93801FBF7F2FF02460B466B
:1041E800614BA3FB02235B091C01D7F8FC300022BA
:1041F800C7F8D030C7F8D420D7E9348942464B46AF
:104208009118B9645B41FB64D7E91223414612EB6C
:10421800010A494643EB010B4FF000024FF000033F
:104228004FEACB0343EA5A734FEACA0292469B46C7
:1042380043461AEB0303C7F8C8304B464BEB03035E
:10424800C7F8CC30D7F8F4305B680022C7F8C03024
:10425800C7F8C420D7E930120B46DB183B64134675
:1042680042EB03037B64D7E91023D7E93201FBF75C
:10427800A7FF02460B4611463B4BA3FB01235B09F4
:10428800642202FB03F3CB1ADB0003F13202364B44
:10429800A3FB02235B095B0003F4F8731C44D7F803
:1042A800FC300022C7F8B830C7F8BC20D7E92E89FF
:1042B80042464B469118B9635B41FB63D7E90E232D
:1042C80041465118396349464B417B634FF0000220
:1042D8004FF00003D7E90CAB5946CB00514643EAEF
:1042E80051735146CA0010461946034642469B1868
:1042F800C7F8B0304B460A4642EB0303C7F8B43060
:10430800D7F8F4305B680022C7F8A830C7F8AC20AB
:10431800D7E92A120B46DB18BB62134642EB0303AC
:10432800FB62D7E90A23D7E92C01FBF749FF0246CC
:104338000B460D4BA3FB02135B09642101FB03F33E
:10434800D31ADB003233084AA2FB03235B0903F0CC
:104358000702D7F8F4301B6822449A6006E100BFD0
:1043680000100140001401401F85EB51D7F8FC30C4
:104378000022C7F8A030C7F8A420D7E92889424608
:104388004B46911839625B417B62D7E90823414665
:104398005418494643EB01054FF000024FF0000363
:1043A800EB0043EA5473E20014461D464346E31803
:1043B800C7F898304B4645EB0303C7F89C30D7F84D
:1043C800F4305B680022C7F89030C7F894204FF0AB
:1043D80000024FF00003D7E9244529468B00214607
:1043E80043EA917321468A00D7E92601FBF7E8FEE4
:1043F80002460B46604BA3FB02235B091C01D7F85E
:10440800FC300022C7F88830C7F88C20D7E9228909
:1044180042464B469118B9615B41FB61D7E90623D7
:1044280041465118396149464B417B614FF00002C2
:104438004FF00003D7E904AB5946CB00514643EA95
:1044480051735146CA0010461946034642469B1806
:10445800C7F880304B460A4642EB0303C7F884305E
:10446800D7F8F4305B680022BB67FA674FF00002A8
:104478004FF00003D7E91E8949468B00414643EABD
:10448800917341468A00D7E92001FBF799FE02465D
:104498000B461146384BA3FB01235B09642202FB40
:1044A80003F3CB1A1B013233334AA2FB03235B0904
:1044B80003F0F0031C44D7F8FC3000223B677A670E
:1044C800D7E91C8942464B469118B9605B41FB60AD
:1044D800D7E9022341465118396049464B417B6070
:1044E8004FF000024FF00003D7E900AB5946CB006C
:1044F800514643EA51735146CA00104619460346CD
:1045080042469B18BB664B460A4642EB0303FB66D2
:10451800D7F8F4305B6800223B667A664FF00002F9
:104528004FF00003D7E9188949468B00414643EA12
:10453800917341468A00D7E91A01FBF741FE02460A
:104548000B460D4BA3FB02135B09642101FB03F32C
:10455800D31A1B013233084AA2FB03235B0903F079
:104568000F02D7F8F4301B6822449A6000BF07F5A1
:104578008077BD46BDE8B08F1F85EB5102440346E6
:10458800934200D1704703F8011BF9E770B50D4D50
:104598000D4C641BA4100026A64209D10B4D0C4CEF
:1045A80000F018F8641BA4100026A64205D170BDBF
:1045B80055F8043B98470136EEE755F8043B984711
:1045C8000136F2E71C4600081C4600081C46000895
:1045D80020460008F8B500BFF8BC08BC9E467047E6
:0C45E800F8B500BFF8BC08BC9E46704748
:1045F400000000000000000001020304060708098F
:104604000000000001020304000610160006101644
:08461400E4BBFF7F0100000080
:04461C00AD010008E4
:044620008901000804
:10462400FFAA000000000000FFAA24000000000010
:10463400FFAA630000000000FFAA025E0000000061
:0C4644000024F400100000000100000041
:040000050800134597
:00000001FF
