:020000040800F2
:1000000000000220FD1D0008011D0008091D000858
:10001000111D0008191D0008211D00080000000026
:10002000000000000000000000000000291D000882
:10003000371D000800000000451D0008531D000882
:100040004D1E00084D1E00084D1E00084D1E0008E4
:100050004D1E00084D1E00084D1E00084D1E0008D4
:100060004D1E00084D1E00084D1E00084D1E0008C4
:10007000611D00084D1E0008751D00084D1E00087A
:100080004D1E00084D1E00084D1E00084D1E0008A4
:100090004D1E00084D1E00084D1E00084D1E000894
:1000A0004D1E00084D1E00084D1E00084D1E000884
:1000B0004D1E00084D1E00084D1E00084D1E000874
:1000C0004D1E00084D1E00084D1E00084D1E000864
:1000D0004D1E0008891D00084D1E00089D1D0008CA
:1000E0004D1E00084D1E00084D1E00084D1E000844
:1000F0004D1E00084D1E00084D1E00084D1E000834
:100100004D1E00084D1E00084D1E00084D1E000823
:100110004D1E00084D1E00084D1E00084D1E000813
:100120004D1E00084D1E0008B11D00084D1E0008A0
:100130004D1E00084D1E00084D1E00084D1E0008F3
:100140004D1E00084D1E00084D1E00084D1E0008E3
:100150004D1E00084D1E0008C51D00084D1E00085C
:100160004D1E00084D1E00084D1E00084D1E0008C3
:100170004D1E00084D1E00084D1E00080000000026
:080180004D1E00084D1E000891
:1001880010B5054C237833B9044B13B10448AFF3C9
:1001980000800123237010BD2C0000200000000007
:1001A8006C4A000808B5034B1BB103490348AFF379
:1001B800008008BD00000000300000206C4A0008E4
:1001C80070B54FF0FF0C4CF4E06C1CEA11541DBFE5
:1001D8001CEA135594EA0C0F95EA0C0F00F0DEF8B0
:1001E8002C4481EA030621EA4C5123EA4C5350EA95
:1001F800013518BF52EA033541F4801143F48013E6
:1002080038D0A0FB02CE4FF00005E1FB02E506F076
:100218000042E0FB03E54FF00006E1FB03569CF0CB
:10022800000F18BF4EF0010EA4F1FF04B6F5007FD1
:1002380064F5407404D25FEA4E0E6D4146EB060643
:1002480042EAC62141EA55514FEAC52040EA5E50CC
:100258004FEACE2EB4F1FD0C88BFBCF5E06F1ED876
:10026800BEF1004F08BF5FEA500E50F1000041EBAD
:10027800045170BD06F0004646EA010140EA02005A
:1002880081EA0301B4EB5C04C2BFD4EB0C0541EA7C
:10029800045170BD41F480114FF0000E013C00F391
:1002A800AB8014F1360FDEBF002001F0004170BDB5
:1002B800C4F10004203C35DA0C341BDC04F11404CE
:1002C800C4F1200500FA05F320FA04F001FA05F25A
:1002D80040EA020001F0004221F0004110EBD37027
:1002E80021FA04F642EB06015EEA430E08BF20EA53
:1002F800D37070BDC4F10C04C4F1200500FA04F3F6
:1003080020FA05F001FA04F240EA020001F0004187
:1003180010EBD37041F100015EEA430E08BF20EAFA
:10032800D37070BDC4F1200500FA05F24EEA020E42
:1003380020FA04F301FA05F243EA020321FA04F071
:1003480001F0004121FA04F220EA020000EBD37028
:100358005EEA430E08BF20EAD37070BD94F0000F28
:100368000FD101F00046400041EB010111F4801F5C
:1003780008BF013CF7D041EA060195F0000F18BF0D
:10038800704703F00046520043EB030313F4801F49
:1003980008BF013DF7D043EA0603704794EA0C0F03
:1003A8000CEA135518BF95EA0C0F0CD050EA410619
:1003B80018BF52EA4306D1D181EA030101F0004196
:1003C8004FF0000070BD50EA410606BF10461946BE
:1003D80052EA430619D094EA0C0F02D150EA0136CA
:1003E80013D195EA0C0F05D152EA03361CBF10460B
:1003F80019460AD181EA030101F0004141F0FE41AA
:1004080041F470014FF0000070BD41F0FE4141F42D
:10041800780170BD81F0004102E000BF83F0004325
:1004280030B54FEA41044FEA430594EA050F08BF87
:1004380090EA020F1FBF54EA000C55EA020C7FEA4B
:10044800645C7FEA655C00F0E2804FEA5454D4EBC8
:100458005555B8BF6D420CDD2C4480EA020281EA92
:10046800030382EA000083EA010180EA020281EACA
:100478000303362D88BF30BD11F0004F4FEA01311C
:100488004FF4801C4CEA113102D0404261EB41012B
:1004980013F0004F4FEA03334CEA133302D05242B1
:1004A80063EB430394EA050F00F0A780A4F101046D
:1004B800D5F1200E0DDB02FA0EFC22FA05F28018A7
:1004C80041F1000103FA0EF2801843FA05F359418D
:1004D8000EE0A5F120050EF1200E012A03FA0EFC0C
:1004E80028BF4CF0020C43FA05F3C01851EBE37136
:1004F80001F0004507D54FF0000EDCF1000C7EEB53
:1005080000006EEB0101B1F5801F1BD3B1F5001F90
:100518000CD349085FEA30004FEA3C0C04F10104AF
:100528004FEA445212F5800F80F09A80BCF1004FD8
:1005380008BF5FEA500C50F1000041EB045141EA5A
:10054800050130BD5FEA4C0C404141EB0101013C23
:1005580028BFB1F5801FE9D291F0000F04BF014612
:100568000020B1FA81F308BF2033A3F10B03B3F1E4
:1005780020020CDA0C3208DD02F1140CC2F10C0274
:1005880001FA0CF021FA02F10CE002F11402D8BFD2
:10059800C2F1200C01FA02F120FA0CFCDCBF41EA9E
:1005A8000C019040E41AA2BF01EB0451294330BD6D
:1005B8006FEA04041F3C1CDA0C340EDC04F114044A
:1005C800C4F1200220FA04F001FA02F340EA030021
:1005D80021FA04F345EA030130BDC4F10C04C4F167
:1005E800200220FA02F001FA04F340EA0300294647
:1005F80030BD21FA04F0294630BD94F0000F83F491
:10060800801306BF81F480110134013D4EE77FEA73
:10061800645C18BF7FEA655C29D094EA050F08BFBF
:1006280090EA020F05D054EA000C04BF19461046A0
:1006380030BD91EA030F1EBF0021002030BD5FEAE4
:10064800545C05D14000494128BF41F0004130BD0C
:1006580014F580043CBF01F5801130BD01F0004560
:1006680045F0FE4141F470014FF0000030BD7FEAD3
:10067800645C1ABF194610467FEA655C1CBF0B46CE
:10068800024650EA013406BF52EA033591EA030FE5
:1006980041F4002130BD00BF90F0000F04BF0021DD
:1006A800704730B54FF4806404F132044FF0000510
:1006B8004FF0000150E700BF90F0000F04BF002189
:1006C800704730B54FF4806404F1320410F00045EF
:1006D80048BF40424FF000013EE700BF42004FEAEA
:1006E800E2014FEA31014FEA02701FBF12F07F4367
:1006F80093F07F4F81F06051704732F07F4208BF1E
:10070800704793F07F4F04BF41F40021704730B524
:100718004FF4607401F0004521F000411CE700BF70
:1007280050EA010208BF704730B54FF000050AE0F3
:1007380050EA010208BF704730B511F0004502D5F4
:10074800404261EB41014FF4806404F132045FEAF6
:10075800915C3FF4D8AE4FF003025FEADC0C18BF9F
:1007680003325FEADC0C18BF033202EBDC02C2F191
:10077800200300FA03FC20FA02F001FA03FE40EA23
:100788000E0021FA02F11444BDE600BF4A0011D25E
:1007980012F5001211D20DD56FF47873B3EB6252D3
:1007A8000ED44FEAC12343F0004343EA505323FADF
:1007B80002F070474FF00000704750EA013002D154
:1007C8004FF0FF3070474FF00000704753B94AB9F7
:1007D800002908BF00281CBF4FF0FF314FF0FF3041
:1007E80000F06AB9ADF1080C6DE904CE00F006F826
:1007F800DDF804E0DDE9022304B070472DE9F04795
:10080800089D0C46002B4ED194468C458646B2FA7C
:1008180082F262D94AB1C2F12003914020FA03F36F
:100828000CFA02FC194300FA02FE4FEA1C471FFAB1
:100838008CF6B1FBF7F44FEA1E4307FB141143EAA9
:10084800014304FB06F199420AD91CEB030304F1A6
:10085800FF3080F01281994240F20F81023C6344DC
:10086800591A1FFA8EF3B1FBF7F007FB101143EA90
:10087800014300FB06F69E420AD91CEB030300F174
:10088800FF3180F0FC809E4240F2F98063440238D8
:100898009B1B40EA044000211DB1D3400022C5E95A
:1008A8000032BDE8F0878B4205D90DB1C5E90001DA
:1008B80000210846F5E7B3FA83F1002946D1A3429F
:1008C80002D39042C0F0F080861A64EB0303012043
:1008D800002DE6D0C5E90063E3E7002A40F09080E8
:1008E800A1EB0C044FEA1C481FFA8CF70121B4FB5A
:1008F800F8F64FEA1E4308FB164443EA044307FB95
:1009080006F0984208D91CEB030306F1FF3402D223
:10091800984200F2CD8026461C1A1FFA8EF3B4FBCB
:10092800F8F008FB104443EA044300FB07F79F4232
:1009380008D91CEB030300F1FF3402D29F4200F2F6
:10094800B0802046DB1B40EA0640A5E7C1F120063F
:100958008B4022FA06F71F4320FA06FC04FA01F33B
:1009680043EA0C03F44000FA01F8380C4FEA134943
:10097800B4FBF0FE1FFA87FC00FB1E4449EA04445E
:100988000EFB0CF9A14502FA01F20AD93C190EF145
:10099800FF3A80F08480A14540F28180AEF1020EDA
:1009A8003C44A4EB09041FFA83F9B4FBF0F300FB01
:1009B800134449EA044403FB0CFCA44507D93C1939
:1009C80003F1FF3067D2A44565D9023B3C4443EAB2
:1009D8000E40A0FB0293A4EB0C049C42CE469C461E
:1009E80051D34ED055B1B8EB0E0364EB0C0404FAA6
:1009F80006F6CB401E43CC40C5E90064002150E711
:100A0800C2F1200320FA03F10CFA02FC24FA03F3E2
:100A180094400C434FEA1C4800FA02FE1FFA8CF778
:100A2800B3FBF8F008FB1031230C43EA014300FB49
:100A380007F1994208D91CEB030300F1FF362CD2C9
:100A480099422AD9023863445B1AA4B2B3FBF8F17D
:100A580008FB113344EA034401FB07F3A34208D916
:100A68001CEB040401F1FF3613D2A34211D9023959
:100A78006444E41A41EA004139E70446F0E60846CE
:100A880006E7C845AED2B9EB020E63EB070C013896
:100A9800A8E73146EDE7034699E73046D4E7D6465E
:100AA8007FE7634402384DE70646234608460FE7CA
:100AB800023E634430E700BF704700BF80B582B094
:100AC80000AF78607B681B680B4A934204D14FF4EF
:100AD80080610A4802F017F97B681B68084A93424C
:100AE80006D14FF48061054802F00DF900F080F856
:100AF80000BF0837BD4680BD001001400014024009
:100B08000048004080B584B000AF78607B681B68FF
:100B1800134A934204D14FF40071124802F0F3F8DB
:100B28007B681B68104A934215D100F061F80023D6
:100B3800FB7308E0FA7BFB7B0C49895C0C4AD154B7
:100B4800FB7B0133FB73FB7B0A2BF3D94FF400715A
:100B5800044802F0D8F800BF1037BD4680BD00BF7A
:100B68000010014000140240004800409802002094
:100B78005802002080B500AF01F066F900F08CFD46
:100B880000F08EFE00F046FE00F0F0FD00F018FECA
:100B980005220F490F4802F0B9FD05220E490D48FC
:100BA80002F0B4FD05220D490A4802F0AFFD052206
:100BB8000B49084802F0AAFD40220A490A4802F0F7
:100BC800A5FD4FF4FA7001F0B1F900BFF4E700BFDA
:100BD80008000020900000201000002018000020CD
:100BE80000000020580200204800002000000000FB
:100BF80080B584B000AF0B229F49A04802F0F6FDF3
:100C08009D4B1B783B709C4B5B787B709A4B9B7819
:100C1800BB70994BDB78FB70974B1B793B71964BFC
:100C28005B797B71944B9B79BB71934BDB79FB713F
:100C3800914B1B7A3B72904B5B7A7B728E4B9B7A03
:100C4800BB723B781A467B7813449BB2BA7813443C
:100C58009BB2FA7813449BB23A7913449BB27A79DF
:100C680013449BB2BA7913449BB2FA7913449BB2EA
:100C78003A7A13449BB27A7A1344FB817B787B736C
:100C88003B785522934240F0FF84FB89BA7A13409F
:100C9800BA7A934240F0F8847B7B503B0A2B00F2EF
:100CA800F48401A252F823F0DD0C00083B0D000883
:100CB800910E0008A10F0008C51000089D1100083A
:100CC8006F12000829130008DB130008B514000888
:100CD800AD1500083A786A4B1A707A78684B5A70E2
:100CE800BA78674B9A70FA78654BDA703A79644B40
:100CF8001A717A79624B5A71BA79614B9A71FA7999
:100D08005F4BDA713A7A5E4B1A727A7A5C4B5A7296
:100D1800BA7A5B4B9A725A4B5B7A1B021AB2584BDF
:100D28001B7A1BB213431BB29AB2554B9A8200F03E
:100D3800ACBC3A78524B1A777A78514B5A77BA78D2
:100D48004F4B9A77FA784E4BDA773A794C4B83F8CF
:100D580020207A794A4B83F82120BA79484B83F8C6
:100D68002220FA79464B83F823203A7A444B83F8B9
:100D780024207A7A424B83F82520BA7A404B83F8AC
:100D880026203F4BDB7F1B023D4A927F1343002BFB
:100D980002DA03F5FF437F33DB131B011846FFF725
:100DA8008BFC33A3D3E90023FFF70AFA02460B466C
:100DB80010461946FFF7EAFC03469AB2304B1A85EB
:100DC8002F4B93F821301B022D4A92F82020134311
:100DD800002B02DA03F5FF437F33DB131B011846B0
:100DE800FFF76AFC22A3D3E90023FFF7E9F90246DB
:100DF8000B4610461946FFF7C9FC03469AB2204B2A
:100E08005A851F4B93F823301B021D4A92F8222063
:100E18001343002B02DA03F5FF437F33DB131B0177
:100E28001846FFF749FC12A3D3E90023FFF7C8F9D6
:100E380002460B4610461946FFF7A8FC03469AB22D
:100E48000F4B9A850E4B93F825301B020C4A92F8EB
:100E5800242013430B4A82FB03125211DB17D31AC7
:100E68009AB2074BDA8500F010BC00BFAFF30080E0
:100E78009A99999999992340980200209000002006
:100E8800A40200201F85EB513A788A4B83F8302062
:100E98007A78884B83F83120BA78864B83F83220E9
:100EA800FA78844B83F833203A79824B83F83420DC
:100EB8007A79804B83F83520BA797E4B83F83620CF
:100EC800FA797C4B83F837203A7A7A4B83F83820C2
:100ED8007A7A784B83F83920BA7A764B83F83A20B5
:100EE800744B93F833301B02724A92F83220134342
:100EF800002B02DA03F5FF437F33DB139BB21A465C
:100F08005201D21A920013441B019AB2694B9A8774
:100F1800684B93F835301B02664A92F83420134325
:100F2800002B02DA03F5FF437F33DB139BB21A462B
:100F38005201D21A920013441B019AB25D4BDA8710
:100F48005C4B93F837301B025A4A92F83620134309
:100F5800002B02DA03F5FF437F33DB139BB21A46FB
:100F68005201D21A920013441B019AB2514BA3F8B2
:100F78004020504B93F839301B024E4A92F83820E3
:100F880013434D4A82FB03125211DB17D31A9AB24C
:100F9800484BA3F8422078E33A78464B83F844203C
:100FA8007A78444B83F84520BA78424B83F8462038
:100FB800FA78404B83F847203A793E4B83F848202B
:100FC8007A793C4B83F84920BA793A4B83F84A201E
:100FD800FA79384B83F84B203A7A364B83F84C2011
:100FE8007A7A344B83F84D20BA7A324B83F84E2004
:100FF800304B93F847301B022E4A92F84620134391
:10100800002B02DA03F5FF437F33DB139BB21A464A
:10101800520013441A461201D31A9B009AB2254B68
:10102800A3F85020234B93F849301B02214A92F829
:1010380048201343002B02DA03F5FF437F33DB1309
:101048009BB21A46520013441A461201D31A9B0047
:101058009AB2184BA3F85220164B93F84B301B0248
:10106800144A92F84A201343002B02DA03F5FF438F
:101078007F33DB139BB21A46520013441A461201FF
:10108800D31A9B009AB20B4BA3F85420094B93F840
:101098004D301B02074A92F84C201343064A82FB44
:1010A80003125211DB17D31A9AB2024BA3F8562037
:1010B800EBE200BFA40200201F85EB513A78964B63
:1010C80083F858207A78944B83F85920BA78924B51
:1010D80083F85A20FA78904B83F85B203A798E4B44
:1010E80083F85C207A798C4B83F85D20BA798A4B37
:1010F80083F85E20FA79884B83F85F203A7A864B2A
:1011080083F860207A7A844B83F86120BA7A824B1C
:1011180083F86220804B93F85B301B021AB27E4B37
:1011280093F85A301BB213431BB29AB27A4BA3F806
:101138006420794B93F85D301B021AB2764B93F812
:101148005C301BB213431BB29AB2734BA3F86620F0
:10115800714B93F85F301B021AB26F4B93F85E30F5
:101168001BB213431BB29AB26B4BA3F868206A4BAD
:1011780093F861301B02684A92F860201343674A6B
:1011880082FB03125211DB17D31A9AB2624BA3F8EF
:101198006A207AE23A78604B83F86C207A785E4B62
:1011A80083F86D20BA785C4B83F86E20FA785A4B36
:1011B80083F86F203A79584B83F870207A79564B28
:1011C80083F87120BA79544B83F87220FA79524B1C
:1011D80083F873203A7A504B83F874207A7A4E4B0E
:1011E80083F87520BA7A4C4B83F876204A4B93F8EB
:1011F8006F301B021AB2484B93F86E301BB2134380
:101208001BB29AB2444BA3F87820434B93F8713041
:101218001B021AB2404B93F870301BB213431BB237
:101228009AB23D4BA3F87A203B4B93F873301B02DC
:101238001AB2394B93F872301BB213431BB29AB2ED
:10124800354BA3F87C20344B93F875301B021AB247
:10125800314B93F874301BB213431BB29AB22E4B26
:10126800A3F87E2011E23A782B4B83F880207A7815
:10127800294B83F88120BA78274B83F88220FA78A3
:10128800254B83F883203A79234B83F884207A7995
:10129800214B83F88520BA791F4B83F88620FA7989
:1012A8001D4B83F887203A7A1B4B83F888207A7A7B
:1012B800194B83F88920BA7A174B83F88A20164B82
:1012C80093F885301A06144B93F884301B041A439C
:1012D800114B93F883301B0213430F4A92F8822074
:1012E80013431A460C4BC3F88C200B4B93F88930E8
:1012F8001A06094B93F888301B041A43064B93F8D7
:1013080087301B021343044A92F8862013431A4677
:10131800014BC3F89020B8E1A40200201F85EB51CF
:101328003A789D4B83F894207A789B4B83F89520E4
:10133800BA78994B83F89620FA78974B83F89720D8
:101348003A79954B83F898207A79934B83F89920CA
:10135800BA79914B83F89A20FA798F4B83F89B20BE
:101368003A7A8D4B83F89C207A7A8B4B83F89D20B0
:10137800BA7A894B83F89E20874B93F899301A06DE
:10138800854B93F898301B041A43834B93F8973096
:101398001B021343804A92F8962013431A467E4B49
:1013A800C3F8A0207C4B93F89D301A067A4B93F82B
:1013B8009C301B041A43784B93F89B301B02134351
:1013C800754A92F89A2013431A46734BC3F8A4201F
:1013D8005BE13A78704B83F8A8207A786E4B83F8F3
:1013E800A920BA786C4B83F8AA20FA786A4B83F85C
:1013F800AB203A79684B83F8AC207A79664B83F84E
:10140800AD20BA79644B83F8AE20FA79624B83F841
:10141800AF203A7A604B83F8B0207A7A5E4B83F833
:10142800B120BA7A5C4B83F8B2205B4B93F8AB30AF
:101438001B02594A92F8AA201343584A82FB031206
:101448009210DB17D31A9AB2534BA3F8B420524B1D
:1014580093F8AD301B02504A92F8AC2013434F4A20
:1014680082FB03129210DB17D31A9AB24A4BA3F8E5
:10147800B620494B93F8B1301A06474B93F8B03071
:101488001B041A43444B93F8AF301B021343424AE0
:1014980092F8AE201343424A82FB03129211DB17E3
:1014A800D31A1A463C4BC3F8B820EEE03A783A4BC8
:1014B80083F8BC207A78384B83F8BD20BA78364B4D
:1014C80083F8BE20FA78344B83F8BF203A79324B40
:1014D80083F8C0207A79304B83F8C120BA792E4B33
:1014E80083F8C220FA792C4B83F8C3203A7A2A4B26
:1014F80083F8C4207A7A284B83F8C520BA7A264B19
:1015080083F8C620244B93F8BF301B02224A92F876
:10151800BE201343002B02DA03F5FF437F33DB13AE
:101528009AB21D4BA3F8C8201B4B93F8C1301B027D
:10153800194A92F8C0201343002B02DA03F5FF433F
:101548007F33DB139AB2144BA3F8CA20124B93F8DB
:10155800C3301B02104A92F8C2201343002B02DA50
:1015680003F5FF437F33DB139AB20B4BA3F8CC2070
:10157800094B93F8C5301B02074A92F8C42013435D
:10158800002B02DA03F5FF437F33DB139AB2024BD9
:10159800A3F8CE2079E000BFA40200206766666643
:1015A800D34D62103A783B4B83F8D0207A78394B88
:1015B80083F8D120BA78374B83F8D220FA78354BA4
:1015C80083F8D3203A79334B83F8D4207A79314B96
:1015D80083F8D520BA792F4B83F8D620FA792D4B8A
:1015E80083F8D7203A7A2B4B83F8D8207A7A294B7C
:1015F80083F8D920BA7A274B83F8DA20254B93F859
:10160800D3301B021AB2234B93F8D2301BB21343C8
:101618001BB29AB21F4BA3F8DC201E4B93F8D530AF
:101628001B021C4A92F8D4201343002B02DA03F55C
:10163800FF437F33DB139AB2164BA3F8DE20154B1A
:1016480093F8D7301B02134A92F8D6201343002B85
:1016580002DA03F5FF437F33DB139AB20D4BA3F88D
:10166800E0200C4B93F8D9301B020A4A92F8D82094
:101678001343002B02DA03F5FF437F33DB139AB2DF
:10168800044BA3F8E22000E000BF00BF1037BD46BE
:1016980080BD00BFA402002080B594B000AF07F160
:1016A800200330220021184603F0B0F907F10C039B
:1016B80000221A605A609A60DA601A610023BB60DF
:1016C800284B1B6C274A43F080531364254B1B6C33
:1016D80003F08053BB60BB6800237B60224B1B6810
:1016E800214A43F4804313601F4B1B6803F4804373
:1016F8007B607B6801233B624FF480337B6202236B
:10170800BB634FF48003FB6304233B64A8237B641F
:101718000223BB640723FB6407F12003184601F08A
:101728000DFB0346002B01D000F05EF90F23FB6090
:1017380002233B6100237B614FF4A053BB614FF44C
:101748008053FB6107F10C030521184601F06EFD7B
:101758000346002B01D000F047F900BF5037BD46C3
:1017680080BD00BF003802400070004080B500AF67
:10177800114B124A1A60104B4FF4E1325A600E4B6B
:1017880000229A600C4B0022DA600B4B00221A618F
:10179800094B0C225A61084B00229A61064B002221
:1017A800DA61054801F062FF0346002B01D000F022
:1017B8001BF900BF80BD00BF480000200010014099
:1017C80080B500AF114B124A1A60104B4FF41652F5
:1017D8005A600E4B00229A600C4B0022DA600B4BC9
:1017E80000221A61094B0C225A61084B00229A61A7
:1017F800064B0022DA61054801F038FF0346002B4A
:1018080001D000F0F1F800BF80BD00BF90000020BB
:101818000048004080B582B000AF00237B601F4BBA
:101828001B6B1E4A43F4800313631C4B1B6B03F4AE
:1018380080037B607B6800233B60184B1B6B174A57
:1018480043F400131363154B1B6B03F400133B6045
:101858003B68002200210C2000F067FC0C2000F0FF
:1018680080FC002200210E2000F05FFC0E2000F01A
:1018780078FC002200213A2000F057FC3A2000F0C2
:1018880070FC00220021462000F04FFC462000F0AA
:1018980068FC00BF0837BD4680BD00BF0038024065
:1018A80080B58CB000AF07F11C0300221A605A60A3
:1018B8009A60DA601A610023BB61474B1B6B464A8A
:1018C80043F010031363444B1B6B03F01003BB611D
:1018D800BB6900237B61404B1B6B3F4A43F0040309
:1018E80013633D4B1B6B03F004037B617B6900238F
:1018F8003B61394B1B6B384A43F020031363364B6B
:101908001B6B03F020033B613B690023FB60324BF8
:101918001B6B314A43F0800313632F4B1B6B03F09F
:101928008003FB60FB680023BB602B4B1B6B2A4AC0
:1019380043F001031363284B1B6B03F00103BB60E7
:10194800BB6800237B60244B1B6B234A43F00203D4
:101958001363214B1B6B03F002037B607B6800223F
:101968004FF400711D4801F0B5F901224FF4806170
:101978001A4801F0AFF91823FB6100233B620023EA
:101988007B6207F11C031946154801F007F84FF46C
:10199800C063FB6101233B6200237B620023BB62BF
:1019A80007F11C0319460D4800F0F8FF4FF4407387
:1019B800FB6112233B6200237B620323BB62042387
:1019C800FB6207F11C031946064800F0E7FF00BF59
:1019D8003037BD4680BD00BF0038024000140240C9
:1019E800001002400004024080B400AF72B600BF8D
:1019F80000BFFDE780B483B000AF00237B60104BCD
:101A08005B6C0F4A43F4804353640D4B5B6C03F4E7
:101A180080437B607B6800233B60094B1B6C084A52
:101A280043F080531364064B1B6C03F080533B60F8
:101A38003B6800BF0C37BD465DF8047B704700BFAC
:101A48000038024080B58CB000AF786007F11C0305
:101A580000221A605A609A60DA601A617B681B6813
:101A6800984A934240F092800023BB61964B5B6C8E
:101A7800954A43F010035364934B5B6C03F01003D7
:101A8800BB61BB6900237B618F4B1B6B8E4A43F0A4
:101A9800010313638C4B1B6B03F001037B617B69B0
:101AA8004FF4C063FB6102233B6200237B62032384
:101AB800BB620723FB6207F11C031946834800F049
:101AC8006DFF834B834A1A60814B4FF000625A6066
:101AD8007F4B00229A607E4B0022DA607C4B4FF4E9
:101AE80080621A617A4B00225A61794B00229A610E
:101AF800774B0022DA61764B00221A62744B00227F
:101B08005A62734800F048FB0346002B01D0FFF7E8
:101B18006BFF7B686E4ADA636D4A7B6893636E4B32
:101B28006E4A1A606C4B4FF000625A606A4B402252
:101B38009A60694B0022DA60674B4FF480621A6141
:101B4800654B00225A61644B00229A61624B002265
:101B5800DA61614B00221A625F4B00225A625E48CA
:101B680000F01AFB0346002B01D0FFF73DFF7B680E
:101B7800594A9A63584A7B689363002200212520BA
:101B880000F0D3FA252000F0ECFA96E07B681B6899
:101B9800534A934240F0918000233B614A4B1B6CAF
:101BA800494A43F480231364474B1B6C03F4802396
:101BB8003B613B690023FB60434B1B6B424A43F08C
:101BC80002031363404B1B6B03F00203FB60FB68CB
:101BD8004FF44063FB6102233B6200237B620323D3
:101BE800BB620723FB6207F11C0319463D4800F05E
:101BF800D5FE3D4B3D4A1A603B4B4FF000625A60A0
:101C0800394B00229A60384B0022DA60364B4FF489
:101C180080621A61344B00225A61334B00229A6168
:101C2800314B0022DA61304B00221A622E4B00221F
:101C38005A622D4800F0B0FA0346002B01D0FFF796
:101C4800D3FE7B68284ADA63274A7B689363284B6C
:101C5800284A1A60264B4FF000625A60244B4022F3
:101C68009A60234B0022DA60214B4FF480621A619C
:101C78001F4B00225A611E4B00229A611C4B002206
:101C8800DA611B4B00221A62194B00225A6218486B
:101C980000F082FA0346002B01D0FFF7A5FE7B680F
:101CA800134A9A63124A7B68936300220021272013
:101CB80000F03BFA272000F054FA00BF3037BD4649
:101CC80080BD00BF00100140003802400000024003
:101CD800D80000204064024038010020B864024067
:101CE800004800400004024098010020286002409B
:101CF800F80100205860024080B400AF00BFFDE743
:101D080080B400AF00BFFDE780B400AF00BFFDE7BF
:101D180080B400AF00BFFDE780B400AF00BFFDE7AF
:101D280080B400AF00BFBD465DF8047B704780B447
:101D380000AF00BFBD465DF8047B704780B400AFBC
:101D480000BFBD465DF8047B704780B500AF00F06A
:101D5800CDF800BF80BD000080B500AF024800F09C
:101D6800B3FB00BF80BD00BF9801002080B500AF65
:101D7800024800F0A9FB00BF80BD00BFF8010020A9
:101D880080B500AF024801F057FD00BF80BD00BF1D
:101D98004800002080B500AF024801F04DFD00BFAB
:101DA80080BD00BF9000002080B500AF024800F061
:101DB8008BFB00BF80BD00BFD800002080B500AFFE
:101DC800024800F081FB00BF80BD00BF3801002041
:101DD80080B400AF064BD3F88830054A43F470034B
:101DE800C2F8883000BFBD465DF8047B704700BF6D
:101DF80000ED00E0DFF834D0FFF7EAFF0C480D49AA
:101E08000D4A002302E0D458C4500433C4188C424D
:101E1800F9D30A4A0A4C002301E013600432A242B3
:101E2800FBD302F0FBFDFEF7A5FE70470000022081
:101E3800000000202C000020B44A00082C000020DC
:101E48008C030020FEE7000080B500AF0E4B1B6836
:101E58000D4A43F4007313600B4B1B680A4A43F4A2
:101E680080631360084B1B68074A43F48073136050
:101E7800032000F04FF90F2000F008F8FFF7BAFD33
:101E88000023184680BD00BF003C024080B582B0E8
:101E980000AF7860124B1A68124B1B7819464FF442
:101EA8007A73B3FBF1F3B2FBF3F3184600F067F96A
:101EB8000346002B01D001230EE07B680F2B0AD8C4
:101EC800002279684FF0FF3000F02FF9064A7B684E
:101ED8001360002300E0012318460837BD4680BD83
:101EE80020000020280000202400002080B400AF3B
:101EF800064B1B781A46064B1B681344044A1360AA
:101F080000BFBD465DF8047B704700BF2800002075
:101F18008803002080B400AF034B1B681846BD46F9
:101F28005DF8047B704700BF8803002080B584B04B
:101F380000AF7860FFF7EEFFB8607B68FB60FB6876
:101F4800B3F1FF3F05D00A4B1B781A46FB681344D0
:101F5800FB6000BFFFF7DEFF0246BB68D31AFA68D2
:101F68009A42F7D800BF00BF1037BD4680BD00BFFA
:101F78002800002080B485B000AF78607B6803F04B
:101F88000703FB600C4BDB68BB60BA684FF6FF03C6
:101F98001340BB60FB681A02BB68134343F0BF637E
:101FA80043F40033BB60044ABB68D36000BF1437F6
:101FB800BD465DF8047B704700ED00E080B400AFDB
:101FC800044BDB681B0A03F007031846BD465DF89F
:101FD800047B704700ED00E080B483B000AF034697
:101FE800FB7197F90730002B0BDBFB7903F01F021D
:101FF800074997F907305B09012000FA02F241F816
:10200800232000BF0C37BD465DF8047B704700BF36
:1020180000E100E080B483B000AF03463960FB7193
:1020280097F90730002B0ADB3B68DAB20C4997F9BD
:1020380007301201D2B20B4483F800230AE03B6850
:10204800DAB20849FB7903F00F03043B1201D2B25C
:102058000B441A7600BF0C37BD465DF8047B704709
:1020680000E100E000ED00E080B489B000AFF86066
:10207800B9607A60FB6803F00703FB61FB69C3F191
:102088000703042B28BF0423BB61FB690433062B19
:1020980002D9FB69033B00E000237B614FF0FF326C
:1020A800BB6902FA03F3DA43BB681A407B699A40BA
:1020B8004FF0FF317B6901FA03F3D9437B680B408A
:1020C800134318462437BD465DF8047B704700006B
:1020D80080B582B000AF78607B68013BB3F1807F48
:1020E80001D301230FE00A4A7B68013B53600F21AB
:1020F8004FF0FF30FFF78EFF054B00229A60044B2C
:1021080007221A60002318460837BD4680BD00BF65
:1021180010E000E080B582B000AF78607868FFF723
:1021280029FF00BF0837BD4680BD80B586B000AF27
:102138000346B9607A60FB7300237B61FFF73EFFBB
:1021480078617A68B9687869FFF78EFF024697F96F
:102158000F3011461846FFF75DFF00BF1837BD4620
:1021680080BD80B582B000AF0346FB7197F9073098
:102178001846FFF731FF00BF0837BD4680BD80B560
:1021880082B000AF78607868FFF7A2FF0346184670
:102198000837BD4680BD000080B586B000AF7860C6
:1021A80000237B61FFF7B6FE38617B68002B01D105
:1021B800012399E07B68022283F835207B6800229E
:1021C80083F834207B681B681A687B681B6822F0D8
:1021D80001021A600FE0FFF79DFE02463B69D31A21
:1021E800052B08D97B6820225A657B68032283F86F
:1021F8003520032378E07B681B681B6803F0010324
:10220800002BE8D17B681B681B687B617A69384BB7
:1022180013407B617B685A687B689B681A437B68BC
:10222800DB681A437B681B691A437B685B691A433E
:102238007B689B691A437B68DB691A437B681B6A66
:1022480013437A6913437B617B685B6A042B07D16C
:102258007B68DA6A7B681B6B13437A6913437B617B
:102268007B681B687A691A607B681B685B697B619D
:102278007B6923F007037B617B685B6A7A69134398
:102288007B617B685B6A042B17D17B689B6A7A69E0
:1022980013437B617B68DB6A002B0ED0786800F003
:1022A80001FB0346002B08D07B6840225A657B68F7
:1022B800012283F83520012316E07B681B687A69C0
:1022C8005A61786800F0B8FA0346FB607B68DB6DFA
:1022D8003F229A40FB689A607B6800225A657B68B7
:1022E800012283F83520002318461837BD4680BDE3
:1022F8003F8010F080B586B000AFF860B9607A60B2
:102308003B600023FB75FB689B6D3B61FB6893F8A2
:102318003430012B01D1022340E0FB68012283F80D
:102328003420FB6893F83530DBB2012B2FD1FB68E2
:10233800022283F83520FB6800225A653B687A68D8
:10234800B968F86800F04AFAFB68DB6D3F229A40EA
:102358003B699A60FB681B681A68FB681B6842F057
:1023680016021A60FB681B6C002B07D0FB681B6801
:102378001A68FB681B6842F008021A60FB681B6851
:102388001A68FB681B6842F001021A6005E0FB68E6
:10239800002283F834200223FB75FB7D184618378A
:1023A800BD4680BD80B584B000AF78607B689B6D0A
:1023B800FB60FFF7AFFDB8607B6893F83530DBB2A0
:1023C800022B08D07B6880225A657B68002283F83C
:1023D8003420012352E07B681B681A687B681B68FD
:1023E80022F016021A607B681B685A697B681B68B2
:1023F80022F080025A617B681B6C002B03D17B683A
:102408009B6C002B07D07B681B681A687B681B686D
:1024180022F008021A607B681B681A687B681B68D0
:1024280022F001021A6013E0FFF774FD0246BB6850
:10243800D31A052B0CD97B6820225A657B680322A6
:1024480083F835207B68002283F83420032315E0C5
:102458007B681B681B6803F00103002BE4D17B68D1
:10246800DB6D3F229A40FB689A607B68012283F803
:1024780035207B68002283F8342000231846103763
:10248800BD4680BD80B483B000AF78607B6893F8A8
:102498003530DBB2022B04D07B6880225A650123D9
:1024A8000CE07B68052283F835207B681B681A6876
:1024B8007B681B6822F001021A60002318460C375B
:1024C800BD465DF8047B704780B586B000AF786084
:1024D8000023BB608E4B1B688E4AA2FB03239B0A1A
:1024E8007B617B689B6D3B613B691B68FB607B681C
:1024F800DB6D08229A40FB681340002B1AD07B68DA
:102508001B681B6803F00403002B13D07B681B684F
:102518001A687B681B6822F004021A607B68DB6D0E
:1025280008229A403B699A607B685B6D43F0010220
:102538007B685A657B68DB6D01229A40FB68134013
:10254800002B12D07B681B685B6903F08003002BAB
:102558000BD07B68DB6D01229A403B699A607B68EF
:102568005B6D43F002027B685A657B68DB6D042271
:102578009A40FB681340002B12D07B681B681B68CD
:1025880003F00203002B0BD07B68DB6D04229A401A
:102598003B699A607B685B6D43F004027B685A650F
:1025A8007B68DB6D10229A40FB681340002B43D0F8
:1025B8007B681B681B6803F00803002B3CD07B6812
:1025C800DB6D10229A403B699A607B681B681B6828
:1025D80003F48023002B18D07B681B681B6803F466
:1025E8000023002B08D17B681B6C002B24D07B6850
:1025F8001B6C786898471FE07B689B6C002B1BD08E
:102608007B689B6C7868984716E07B681B681B683A
:1026180003F48073002B07D17B681B681A687B68FA
:102628001B6822F008021A607B681B6C002B03D021
:102638007B681B6C786898477B68DB6D20229A4022
:10264800FB681340002B00F08F807B681B681B68B9
:1026580003F01003002B00F087807B68DB6D2022DD
:102668009A403B699A607B6893F83530DBB2052B5A
:1026780036D17B681B681A687B681B6822F01602D3
:102688001A607B681B685A697B681B6822F08002A5
:102698005A617B681B6C002B03D17B689B6C002BF9
:1026A80007D07B681B681A687B681B6822F00802E1
:1026B8001A607B68DB6D3F229A403B699A607B68B1
:1026C800012283F835207B68002283F834207B6858
:1026D8001B6D002B7ED07B681B6D7868984779E06E
:1026E8007B681B681B6803F48023002B1DD07B6864
:1026F8001B681B6803F40023002B0DD17B685B6CFF
:10270800002B31D07B685B6C786898472CE000BF61
:1027180020000020B5814E1B7B68DB6B002B23D08B
:102728007B68DB6B786898471EE07B681B681B68D2
:1027380003F48073002B0FD17B681B681A687B68D1
:102748001B6822F010021A607B68012283F835208A
:102758007B68002283F834207B68DB6B002B03D076
:102768007B68DB6B786898477B685B6D002B32D0A1
:102778007B685B6D03F00103002B22D07B68052288
:1027880083F835207B681B681A687B681B6822F011
:1027980001021A60BB680133BB607A699A4207D3A9
:1027A8007B681B681B6803F00103002BF2D100E073
:1027B80000BF7B68012283F835207B68002283F8FC
:1027C80034207B68DB6C002B05D07B68DB6C786879
:1027D800984700E000BF1837BD4680BD80B485B07B
:1027E80000AFF860B9607A603B60FB681B681A68E4
:1027F800FB681B6822F480221A60FB681B683A6831
:102808005A60FB689B68402B08D1FB681B687A6894
:102818009A60FB681B68BA68DA6007E0FB681B68A7
:10282800BA689A60FB681B687A68DA6000BF143778
:10283800BD465DF8047B704780B485B000AF786012
:102848007B681B68DBB2103B144AA2FB03231B09FD
:10285800FB60134AFB6813441B781A467B68DA65E9
:10286800FB68032B09D97B681B6823F47F7323F06B
:1028780003031A1D7B689A6507E07B681B6823F4CD
:102888007F7323F003037A6893657B689B6D184612
:102898001437BD465DF8047B704700BFABAAAAAAEF
:1028A8009C4A000880B485B000AF78600023FB73B1
:1028B8007B689B6ABB607B689B69002B1FD1BB68E8
:1028C800032B56D801A252F823F000BFE5280008D0
:1028D800F7280008E52800087B2900087B68DB6AE0
:1028E80003F08073002B46D00123FB7343E07B6821
:1028F800DB6AB3F1C07F40D10123FB733DE07B6805
:102908009B69B3F5005F21D1BB68032B37D801A2BF
:1029180052F823F02D290008332900082D29000832
:10292800452900080123FB7330E07B68DB6A03F06C
:102938008073002B25D00123FB7322E07B68DB6AC0
:10294800B3F1C07F1FD10123FB731CE0BB68022BCE
:1029580003D9BB68032B03D018E00123FB7315E0F0
:102968007B68DB6A03F08073002B0ED00123FB73B6
:102978000BE000BF0AE000BF08E000BF06E000BFB0
:1029880004E000BF02E000BF00E000BFFB7B184688
:102998001437BD465DF8047B704700BF80B489B02A
:1029A80000AF7860396000237B6100233B6100231E
:1029B800BB610023FB616BE10122FB6902FA03F3AF
:1029C8007B613B681B687A6913403B613A697B69A4
:1029D8009A4240F05A813B685B6803F00303012B7D
:1029E80005D03B685B6803F00303022B30D17B689A
:1029F8009B68BB61FB695B00032202FA03F3DB43BC
:102A0800BA691340BB613B68DA68FB695B0002FA8C
:102A180003F3BA691343BB617B68BA699A607B6840
:102A28005B68BB610122FB6902FA03F3DB43BA6905
:102A38001340BB613B685B681B0903F00102FB693B
:102A480002FA03F3BA691343BB617B68BA695A6037
:102A58003B685B6803F00303032B17D07B68DB68D4
:102A6800BB61FB695B00032202FA03F3DB43BA692B
:102A78001340BB613B689A68FB695B0002FA03F389
:102A8800BA691343BB617B68BA69DA603B685B6803
:102A980003F00303022B23D1FB69DA087B680832B1
:102AA80053F82230BB61FB6903F007039B000F2238
:102AB80002FA03F3DB43BA691340BB613B681A6946
:102AC800FB6903F007039B0002FA03F3BA69134397
:102AD800BB61FB69DA087B680832B96943F82210E0
:102AE8007B681B68BB61FB695B00032202FA03F386
:102AF800DB43BA691340BB613B685B6803F00302C0
:102B0800FB695B0002FA03F3BA691343BB617B6894
:102B1800BA691A603B685B6803F44033002B00F025
:102B2800B4800023FB60604B5B6C5F4A43F48043D6
:102B380053645D4B5B6C03F48043FB60FB685B4A4A
:102B4800FB699B08023352F82330BB61FB6903F031
:102B580003039B000F2202FA03F3DB43BA69134015
:102B6800BB617B68524A93422BD07B68514A93429F
:102B780025D07B68504A93421FD07B684F4A9342C6
:102B880019D07B684E4A934213D07B684D4A9342D2
:102B98000DD07B684C4A934207D07B684B4A9342DE
:102BA80001D107230EE008230CE006230AE00523E1
:102BB80008E0042306E0032304E0022302E00123E3
:102BC80000E00023FA6902F0030292009340BA6918
:102BD8001343BB613549FB699B080233BA6941F865
:102BE80023203B4B9B68BB613B69DB43BA691340BD
:102BF800BB613B685B6803F48013002B03D0BA69A0
:102C08003B691343BB61324ABB699360304BDB6855
:102C1800BB613B69DB43BA691340BB613B685B68D6
:102C280003F40013002B03D0BA693B691343BB615B
:102C3800274ABB69D360264B5B68BB613B69DB43B2
:102C4800BA691340BB613B685B6803F40033002B2F
:102C580003D0BA693B691343BB611D4ABB69536022
:102C68001B4B1B68BB613B69DB43BA691340BB6103
:102C78003B685B6803F48033002B03D0BA693B6977
:102C88001343BB61124ABB691360FB690133FB61E3
:102C9800FB690F2B7FF690AE00BF00BF2437BD46FF
:102CA8005DF8047B704700BF0038024000380140DF
:102CB800000002400004024000080240000C0240EC
:102CC800001002400014024000180240001C02409C
:102CD800003C014080B483B000AF78600B467B8035
:102CE80013467B707B78002B03D07A887B689A61C7
:102CF80003E07B881A047B689A6100BF0C37BD46E5
:102D08005DF8047B704780B485B000AF78600B46EF
:102D18007B807B685B69FB607A88FB6813401A04D8
:102D2800FB68D9437B880B401A437B689A6100BFD4
:102D38001437BD465DF8047B7047000080B586B047
:102D480000AF78607B68002B01D1012367E27B68C4
:102D58001B6803F00103002B75D0884B9B6803F0B8
:102D68000C03042B0CD0854B9B6803F00C03082B39
:102D780012D1824B5B6803F48003B3F5800F0BD14B
:102D88007E4B1B6803F40033002B5BD07B685B68C9
:102D9800002B57D1012342E27B685B68B3F5803F83
:102DA80006D1764B1B68754A43F4803313601DE0E7
:102DB8007B685B68B3F5A02F0CD1704B1B686F4A1A
:102DC80043F4802313606D4B1B686C4A43F48033D3
:102DD80013600BE0694B1B68684A23F48033136067
:102DE800664B1B68654A23F4802313607B685B6825
:102DF800002B13D0FFF78EF8386108E0FFF78AF848
:102E080002463B69D31A642B01D9032307E25B4BC3
:102E18001B6803F40033002BF0D014E0FFF77AF8B6
:102E2800386108E0FFF776F802463B69D31A642B4D
:102E380001D90323F3E1514B1B6803F40033002B42
:102E4800F0D100E000BF7B681B6803F00203002B91
:102E580063D04A4B9B6803F00C03002B0BD0474B05
:102E68009B6803F00C03082B1CD1444B5B6803F4EC
:102E78008003002B16D1414B1B6803F00203002B83
:102E880005D07B68DB68012B01D00123C7E13B4BF0
:102E98001B6823F0F8027B681B69DB003749134382
:102EA8000B603AE07B68DB68002B20D0344B0122B2
:102EB8001A60FFF72FF8386108E0FFF72BF8024691
:102EC8003B69D31A022B01D90323A8E12B4B1B68BA
:102ED80003F00203002BF0D0284B1B6823F0F80204
:102EE8007B681B69DB00254913430B6015E0244B05
:102EF80000221A60FFF70EF8386108E0FFF70AF8B9
:102F080002463B69D31A022B01D9032387E11B4BE5
:102F18001B6803F00203002BF0D17B681B6803F0E9
:102F28000803002B36D07B685B69002B16D0154B45
:102F380001221A60FEF7EEFF386108E0FEF7EAFFAB
:102F480002463B69D31A022B01D9032367E10B4BD5
:102F58005B6F03F00203002BF0D01BE0094B00224B
:102F68001A60FEF7D7FF38610EE0FEF7D3FF02467E
:102F78003B69D31A022B07D9032350E100380240DA
:102F880000004742800E4742884B5B6F03F0020304
:102F9800002BEAD17B681B6803F00403002B00F0C8
:102FA80097800023FB75814B1B6C03F08053002B2B
:102FB8000FD10023BB607D4B1B6C7C4A43F08053D0
:102FC80013647A4B1B6C03F08053BB60BB6801230E
:102FD800FB75774B1B6803F48073002B18D1744B77
:102FE8001B68734A43F480731360FEF793FF3861DC
:102FF80008E0FEF78FFF02463B69D31A022B01D97E
:1030080003230CE16A4B1B6803F48073002BF0D098
:103018007B689B68012B06D1644B1B6F634A43F0A6
:10302800010313671CE07B689B68052B0CD15F4B81
:103038001B6F5E4A43F0040313675C4B1B6F5B4ACC
:1030480043F0010313670BE0584B1B6F574A23F0FB
:1030580001031367554B1B6F544A23F0040313678E
:103068007B689B68002B15D0FEF754FF38610AE097
:10307800FEF750FF02463B69D31A41F28832934269
:1030880001D90323CBE0494B1B6F03F00203002B4C
:10309800EED014E0FEF73EFF38610AE0FEF73AFF93
:1030A80002463B69D31A41F28832934201D903237D
:1030B800B5E03E4B1B6F03F00203002BEED1FB7D06
:1030C800012B05D1394B1B6C384A23F0805313640C
:1030D8007B689B69002B00F0A180344B9B6803F050
:1030E8000C03082B5CD07B689B69022B41D1314BC8
:1030F80000221A60FEF70EFF386108E0FEF70AFFAB
:1031080002463B69D31A022B01D9032387E0274BD8
:103118001B6803F00073002BF0D17B68DA697B68C9
:103128001B6A1A437B685B6A9B011A437B689B6A2C
:103138005B08013B1B041A437B68DB6A1B061B49BF
:1031480013434B601B4B01221A60FEF7E3FE386104
:1031580008E0FEF7DFFE02463B69D31A022B01D9CD
:1031680003235CE0114B1B6803F00073002BF0D0C5
:1031780054E0104B00221A60FEF7CCFE386108E0DC
:10318800FEF7C8FE02463B69D31A022B01D9032376
:1031980045E0064B1B6803F00073002BF0D13DE0BF
:1031A8007B689B69012B07D1012338E00038024076
:1031B80000700040600047421B4B5B68FB607B6807
:1031C8009B69012B28D0FB6803F480027B68DB69CC
:1031D8009A4221D1FB6803F03F027B681B6A9A423E
:1031E8001AD1FA6847F6C07313407A68526A920196
:1031F800934211D1FB6803F440327B689B6A5B08F9
:10320800013B1B049A4207D1FB6803F070627B689C
:10321800DB6A1B069A4201D0012300E0002318460E
:103228001837BD4680BD00BF0038024080B584B065
:1032380000AF786039607B68002B01D10123CCE0B6
:10324800684B1B6803F007033A689A420CD9654B30
:103258003A68D2B21A70634B1B6803F007033A68E6
:103268009A4201D00123B8E07B681B6803F002038F
:10327800002B20D07B681B6803F00403002B05D0CB
:10328800594B9B68584A43F4E05393607B681B682A
:1032980003F00803002B05D0534B9B68524A43F4B4
:1032A80060439360504B9B6823F0F0027B689B68F7
:1032B8004D4913438B607B681B6803F00103002BA7
:1032C80044D07B685B68012B07D1474B1B6803F42C
:1032D8000033002B19D101237FE07B685B68022B48
:1032E80003D07B685B68032B07D13F4B1B6803F057
:1032F8000073002B09D101236FE03B4B1B6803F0DF
:103308000203002B01D1012367E0374B9B6823F0B0
:1033180003027B685B68344913438B60FEF7FAFD50
:10332800F8600AE0FEF7F6FD0246FB68D31A41F2A0
:103338008832934201D903234FE02B4B9B6803F05B
:103348000C027B685B689B009A42EBD1254B1B689B
:1033580003F007033A689A420CD2224B3A68D2B279
:103368001A70204B1B6803F007033A689A4201D091
:10337800012332E07B681B6803F00403002B08D0AC
:10338800194B9B6823F4E0527B68DB6816491343AA
:103398008B607B681B6803F00803002B09D0124B75
:1033A8009B6823F460427B681B69DB000E4913436A
:1033B8008B6000F021F802460B4B9B681B0903F059
:1033C8000F030A49CB5C22FA03F3094A1360094B3D
:1033D8001B681846FEF75AFD002318461037BD46ED
:1033E80080BD00BF003C024000380240844A00080B
:1033F80020000020240000202DE9B04F94B000AF39
:1034080000237B640023FB6400233B640023BB642C
:10341800794B9B6803F00C03082B0DD0082B00F2A6
:10342800E180002B02D0042B03D0DBE0734BBB649C
:10343800DBE0734BBB64D8E06F4B5B6803F03F0382
:103448007B646D4B5B6803F48003002B63D06A4B8D
:103458005B689B090022BB63FA63BB6BC3F3080379
:103468003B6300237B63D7E90C4522462B464FF08C
:1034780000004FF00001590141EAD26150010246B3
:103488000B462146511A3961294663EB01037B61DA
:103498004FF000024FF00003D7E904AB59468B0107
:1034A800514643EA916351468A015146B2EB0108FD
:1034B800594663EB01094FF000024FF000034FEA51
:1034C800C90343EA58734FEAC8029046994623460F
:1034D80018EB0303BB602B4649EB0303FB604FF07B
:1034E80000024FF00003D7E9024529464B02214666
:1034F80043EAD15321464A02104619467B6C002202
:10350800BB62FA62D7E90A23FDF760F902460B4667
:103518001346FB6458E0384B5B689B090022184649
:103528001146C0F308033B6200237B62D7E9088990
:1035380042464B464FF000004FF00001590141EA66
:10354800D261500102460B464146B2EB010A494698
:1035580063EB010B4FF000024FF000034FEA8B13AF
:1035680043EA9A634FEA8A12B2EB0A0463EB0B054B
:103578004FF000024FF00003EB0043EA5473E200FF
:1035880014461D464346E3183B604B4645EB030390
:103598007B604FF000024FF00003D7E90045294651
:1035A8008B02214643EA915321468A021046194666
:1035B8007B6C0022BB61FA61D7E90623FDF706F9A7
:1035C80002460B461346FB640B4B5B681B0C03F06F
:1035D800030301335B003B64FA6C3B6CB2FBF3F30F
:1035E800BB6402E0054BBB6400BFBB6C1846503798
:1035F800BD46BDE8B08F00BF003802400024F4008B
:1036080000127A0080B400AF034B1B681846BD4611
:103618005DF8047B704700BF2000002080B500AF34
:10362800FFF7F0FF0246054B9B689B0A03F0070370
:103638000349CB5C22FA03F3184680BD00380240E8
:10364800944A000880B500AFFFF7DCFF0246054B3F
:103658009B685B0B03F007030349CB5C22FA03F377
:10366800184680BD00380240944A000880B582B0F0
:1036780000AF78607B68002B01D1012342E07B68B2
:1036880093F84130DBB2002B06D17B68002283F827
:1036980040207868FEF7D6F97B68242283F8412019
:1036A8007B681B68DA687B681B6822F40052DA6062
:1036B800786800F037FF7B681B681A697B681B68AD
:1036C80022F490421A617B681B685A697B681B6800
:1036D80022F02A025A617B681B68DA687B681B68DB
:1036E80042F40052DA607B6800225A647B68202228
:1036F80083F841207B68202283F842207B680022DF
:103708005A63002318460837BD4680BD80B58CB083
:1037180000AFF860B9601346FB80FB6893F841304E
:10372800DBB2202B56D1BB68002B02D0FB88002BC4
:1037380001D101234FE0BA68FB681A62FB68FA8876
:103748009A84FB68FA88DA84FB6800225A64FB686A
:10375800212283F84120FB689B6B214ADA63FB68CE
:103768009B6B204A1A64FB689B6B1F4ADA64FB68F0
:103778009B6B00221A6507F10803FB62FB68986BD4
:10378800FB6A1968FB681B6804331A46FB88FEF756
:10379800B1FDFB681B686FF040021A60FB681B688C
:1037A8001433BB61BB6953E8003F7B617B6943F01D
:1037B8008003BB62FB681B681433BA6A7A623B6297
:1037C800396A7A6A41E80023FB61FB69002BE5D17D
:1037D800002300E0022318463037BD4680BD00BFF5
:1037E800B93D0008533E0008D73F000880B584B0B3
:1037F80000AFF860B9601346FB80FB6893F842306D
:10380800DBB2202B12D1BB68002B02D0FB88002B27
:1038180001D101230BE0FB6800221A63FB881A46DA
:10382800B968F86800F01EFC034600E00223184659
:103838001037BD4680BD000080B5BAB000AF7860D3
:103848007B681B681B68C7F8E4307B681B68DB680B
:10385800C7F8E0307B681B685B69C7F8DC30002379
:10386800C7F8D8300023C7F8D430D7F8E43003F0CD
:103878000F03C7F8D830D7F8D830002B0FD1D7F8B6
:10388800E43003F02003002B09D0D7F8E03003F030
:103898002003002B03D0786800F085FD5BE2D7F8A1
:1038A800D830002B00F0DE80D7F8DC3003F00103BD
:1038B800002B06D1D7F8E03003F49073002B00F00A
:1038C800D180D7F8E43003F00103002B0BD0D7F8F0
:1038D800E03003F48073002B05D07B685B6C43F009
:1038E80001027B685A64D7F8E43003F00403002B24
:1038F8000BD0D7F8DC3003F00103002B05D07B6830
:103908005B6C43F002027B685A64D7F8E43003F03A
:103918000203002B0BD0D7F8DC3003F00103002B97
:1039280005D07B685B6C43F004027B685A64D7F867
:10393800E43003F00803002B11D0D7F8E03003F08F
:103948002003002B05D1D7F8DC3003F00103002B4E
:1039580005D07B685B6C43F008027B685A647B681F
:103968005B6C002B00F0F281D7F8E43003F0200301
:10397800002B08D0D7F8E03003F02003002B02D04A
:10398800786800F010FD7B681B685B6903F04003F2
:10399800402B0CBF01230023DBB2C7F8D4307B686F
:1039A8005B6C03F00803002B03D1D7F8D430002B4D
:1039B8004FD0786800F018FC7B681B685B6903F0DF
:1039C8004003402B41D17B681B681433C7F89C30F7
:1039D800D7F89C3053E8003FC7F89830D7F89830AC
:1039E80023F04003C7F8D0307B681B681433D7F83E
:1039F800D020C7F8A820C7F8A430D7F8A410D7F863
:103A0800A82041E80023C7F8A030D7F8A030002B41
:103A1800D9D17B68DB6B002B13D07B68DB6B7E4ACC
:103A28001A657B68DB6B1846FEF72CFD0346002BF6
:103A380016D07B68DB6B1B6D7A68D26B1046984793
:103A48000EE0786800F09EF90AE0786800F09AF9CC
:103A580006E0786800F096F97B6800225A6475E100
:103A680000BF73E17B681B6B012B40F04F81D7F8D7
:103A7800E43003F01003002B00F04881D7F8E03061
:103A880003F01003002B00F041810023BB607B682A
:103A98001B681B68BB607B681B685B68BB60BB6896
:103AA8007B681B685B6903F04003402B40F0B680DD
:103AB8007B68DB6B1B685B68A7F8BE30B7F8BE3065
:103AC800002B00F045817B689B8DB7F8BE209A4299
:103AD80080F03E817B68B7F8BE20DA857B68DB6BB7
:103AE800DB69B3F5807F00F088807B681B680C3346
:103AF800C7F88830D7F8883053E8003FC7F88430D3
:103B0800D7F8843023F48073C7F8B8307B681B6813
:103B18000C33D7F8B820C7F89420C7F89030D7F8F6
:103B28009010D7F8942041E80023C7F88C30D7F8D4
:103B38008C30002BD9D17B681B6814337B677B6F73
:103B480053E8003F3B673B6F23F00103C7F8B430ED
:103B58007B681B681433D7F8B420C7F88020FB674C
:103B6800F96FD7F8802041E80023BB67BB6F002BB3
:103B7800E1D17B681B6814333B663B6E53E8003F1A
:103B8800FB65FB6D23F04003C7F8B0307B681B680A
:103B98001433D7F8B020FA66BB66B96EFA6E41E8FE
:103BA80000237B667B6E002BE3D17B68202283F8A1
:103BB80042207B6800221A637B681B680C33FB6415
:103BC800FB6C53E8003FBB64BB6C23F01003C7F8E1
:103BD800AC307B681B680C33D7F8AC20BA657B65C2
:103BE800796DBA6D41E800233B653B6D002BE3D14D
:103BF8007B68DB6B1846FEF7D5FB7B6802225A63AD
:103C08007B689A8D7B68DB8D9BB2D31A9BB2194671
:103C1800786800F0C1F89BE0B74200087B689A8D8D
:103C28007B68DB8D9BB2D31AA7F8CE307B68DB8D1F
:103C38009BB2002B00F08E80B7F8CE30002B00F03E
:103C480089807B681B680C33BB63BB6B53E8003F00
:103C58007B637B6B23F49073C7F8C8307B681B6861
:103C68000C33D7F8C8207A643B64396C7A6C41E825
:103C78000023FB63FB6B002BE3D17B681B681433C9
:103C88007B627B6A53E8003F3B623B6A23F0010397
:103C9800C7F8C4307B681B681433D7F8C4203A636C
:103CA800FB62F96A3A6B41E80023BB62BB6A002BEE
:103CB800E3D17B68202283F842207B6800221A63C4
:103CC8007B681B680C333B613B6953E8003FFB6032
:103CD800FB6823F01003C7F8C0307B681B680C33FF
:103CE800D7F8C020FA61BB61B969FA6941E80023D5
:103CF8007B617B69002BE3D17B6802225A63B7F8AA
:103D0800CE301946786800F047F823E0D7F8E43059
:103D180003F08003002B09D0D7F8E03003F08003CC
:103D2800002B03D0786800F0D6FA14E0D7F8E43016
:103D380003F04003002B0ED0D7F8E03003F0400327
:103D4800002B08D0786800F016FB04E000BF02E002
:103D580000BF00E000BFE837BD4680BD80B483B037
:103D680000AF786000BF0C37BD465DF8047B704734
:103D780080B483B000AF786000BF0C37BD465DF8F3
:103D8800047B704780B483B000AF786000BF0C3705
:103D9800BD465DF8047B704780B483B000AF78609F
:103DA8000B467B8000BF0C37BD465DF8047B70472F
:103DB80080B590B000AF78607B689B6BFB637B68D5
:103DC8001B681B6803F48073002B37D1FB6B002240
:103DD800DA84FB6B1B6814337B627B6A53E8003F11
:103DE8003B623B6A23F08003BB63FB6B1B681433A5
:103DF800BA6B3A63FB62F96A3A6B41E80023BB622B
:103E0800BB6A002BE5D1FB6B1B680C333B613B693C
:103E180053E8003FFB60FB6843F040037B63FB6BA8
:103E28001B680C337A6BFA61BB61B969FA6941E8BE
:103E380000237B617B69002BE5D102E0F86BFCF77E
:103E48003DFE00BF4037BD4680BD80B584B000AFA1
:103E580078607B689B6BFB60F868FFF77FFF00BFAB
:103E68001037BD4680BD80B59CB000AF78607B68D8
:103E78009B6BFB667B681B681B6803F48073002BD5
:103E880072D1FB6E0022DA85FB6E1B680C33FB6473
:103E9800FB6C53E8003FBB64BB6C23F48073BB66C8
:103EA800FB6E1B680C33BA6EBA657B65796DBA6DAB
:103EB80041E800233B653B6D002BE5D1FB6E1B6899
:103EC8001433BB63BB6B53E8003F7B637B6B23F00E
:103ED80001037B66FB6E1B6814337A6E7A643B645D
:103EE800396C7A6C41E80023FB63FB6B002BE5D14E
:103EF800FB6E1B6814337B627B6A53E8003F3B62AE
:103F08003B6A23F040033B66FB6E1B6814333A6E32
:103F18003A63FB62F96A3A6B41E80023BB62BB6A09
:103F2800002BE5D1FB6E202283F84220FB6E1B6B31
:103F3800012B19D1FB6E1B680C333B613B6953E8BD
:103F4800003FFB60FB6823F01003FB65FB6E1B68FA
:103F58000C33FA6DFA61BB61B969FA6941E800236B
:103F68007B617B69002BE5D1FB6E00225A63FB6EF7
:103F78001B6B012B06D1FB6E9B8D1946F86EFFF764
:103F88000BFF02E0F86EFCF7BDFD00BF7037BD46C1
:103F980080BD80B584B000AF78607B689B6BFB60A8
:103FA800FB6801225A63FB681B6B012B08D1FB6875
:103FB8009B8D5B089BB21946F868FFF7EDFE02E09F
:103FC800F868FFF7D5FE00BF1037BD4680BD80B545
:103FD80084B000AF78600023FB607B689B6BBB609C
:103FE800BB681B685B6903F08003802B0CBF01234F
:103FF8000023DBB2FB60BB6893F84130DBB2212BB6
:1040080008D1FB68002B05D0BB680022DA84B868A9
:1040180000F0C2F8BB681B685B6903F04003402BE3
:104028000CBF01230023DBB2FB60BB6893F842306E
:10403800DBB2222B08D1FB68002B05D0BB6800221D
:10404800DA85B86800F0D0F8BB685B6C43F0100202
:10405800BB685A64B868FFF795FE00BF1037BD46C5
:1040680080BD000080B598B000AFF860B960134615
:10407800FB80BA68FB689A62FB68FA889A85FB68D5
:1040880000225A64FB68222283F84220FB68DB6B1B
:104098003E4ADA63FB68DB6B3D4A1A64FB68DB6BFC
:1040A8003C4ADA64FB68DB6B00221A6507F10803F7
:1040B800FB65FB68D86BFB681B6804331946FB6D0E
:1040C8001A68FB88FEF716F900233B61FB681B683A
:1040D8001B683B61FB681B685B683B613B69FB686D
:1040E8001B69002B19D0FB681B680C333B643B6CC5
:1040F80053E8003FFB63FB6B43F48073BB65FB68CD
:104108001B680C33BA6DFA64BB64B96CFA6C41E88D
:1041180000237B647B6C002BE5D1FB681B681433A0
:10412800FB62FB6A53E8003FBB62BB6A43F00103D2
:104138007B65FB681B6814337A6DBA637B63796BA4
:10414800BA6B41E800233B633B6B002BE5D1FB686E
:104158001B681433BB61BB6953E8003F7B617B6913
:1041680043F040033B65FB681B6814333A6D7A6281
:104178003B62396A7A6A41E80023FB61FB69002BDC
:10418800E5D1002318466037BD4680BD6F3E000864
:104198009B3F0008D73F000880B489B000AF786023
:1041A8007B681B680C33FB60FB6853E8003FBB600F
:1041B800BB6823F0C003FB617B681B680C33FA699A
:1041C800BA617B617969BA6941E800233B613B695F
:1041D800002BE5D17B68202283F8412000BF2437DB
:1041E800BD465DF8047B704780B495B000AF786039
:1041F8007B681B680C337B637B6B53E8003F3B6336
:104208003B6B23F49073FB647B681B680C33FA6C7C
:104218003A64FB63F96B3A6C41E80023BB63BB6B00
:10422800002BE5D17B681B6814333B623B6A53E87B
:10423800003FFB61FB6923F00103BB647B681B68DB
:104248001433BA6CFA62BB62B96AFA6A41E80023AD
:104258007B627B6A002BE5D17B681B6B012B19D134
:104268007B681B680C33FB60FB6853E8003FBB604E
:10427800BB6823F010037B647B681B680C337A6C83
:10428800BA617B617969BA6941E800233B613B699E
:10429800002BE5D17B68202283F842207B6800222E
:1042A8001A6300BF5437BD465DF8047B704780B57C
:1042B80084B000AF78607B689B6BFB60FB68002272
:1042C800DA85FB680022DA84F868FFF75BFD00BF37
:1042D8001037BD4680BD80B485B000AF78607B687C
:1042E80093F84130DBB2212B3ED17B689B68B3F554
:1042F800805F14D17B681B69002B10D17B681B6A17
:10430800FB60FB681B881A467B681B68C2F30802BF
:104318005A607B681B6A9A1C7B681A6208E07B6893
:104328001B6A591C7A6811621A787B681B685A6084
:104338007B68DB8C9BB2013B9BB27A681946D184BF
:10434800002B0FD17B681B68DA687B681B6822F03A
:104358008002DA607B681B68DA687B681B6842F059
:104368004002DA60002300E0022318461437BD46F5
:104378005DF8047B704780B582B000AF78607B68D9
:104388001B68DA687B681B6822F04002DA607B6889
:10439800202283F841207868FCF790FB0023184618
:1043A8000837BD4680BD80B58CB000AF78607B68AB
:1043B80093F84230DBB2222B40F0AE807B689B68DA
:1043C800B3F5805F17D17B681B69002B13D10023DD
:1043D800FB627B689B6ABB627B681B685B689BB2FD
:1043E800C3F308039AB2BB6A1A807B689B6A9A1C5B
:1043F8007B689A6226E07B689B6AFB620023BB624B
:104408007B689B68B3F5805F07D07B689B68002B4F
:104418000AD17B681B69002B06D17B681B685B6827
:10442800DAB2FB6A1A7008E07B681B685B68DBB26B
:1044380003F07F03DAB2FB6A1A707B689B6A5A1C26
:104448007B689A627B68DB8D9BB2013B9BB27A6882
:104458001946D185002B5DD17B681B68DA687B68BB
:104468001B6822F02002DA607B681B68DA687B68C8
:104478001B6822F48072DA607B681B685A697B6863
:104488001B6822F001025A617B68202283F84220CF
:104498007B6800225A637B681B6B012B35D17B68D4
:1044A80000221A637B681B680C337B617B6953E8C5
:1044B800003F3B613B6923F010037B627B681B680C
:1044C8000C337A6A3A62FB61F9693A6A41E8002377
:1044D800BB61BB69002BE5D17B681B681B6803F0D7
:1044E8001003102B0AD10023FB607B681B681B6834
:1044F800FB607B681B685B68FB60FB687B689B8D67
:1045080019467868FFF748FC02E07868FCF7FAFA81
:10451800002302E0002300E0022318463037BD469E
:1045280080BD00002DE9B04FC0B000AFC7F8F4005F
:10453800D7F8F4301B681B6923F44050D7F8F430DF
:10454800D968D7F8F4301A6840EA01031361D7F83C
:10455800F4309A68D7F8F4301B691A43D7F8F43066
:104568005B691A43D7F8F430DB691343C7F8F830AE
:10457800D7F8F4301B68DB6823F4164121F00C01EE
:10458800D7F8F4301A68D7F8F8300B43D360D7F867
:10459800F4301B685B6923F44070D7F8F4309969EC
:1045A800D7F8F4301A6840EA01035361D7F8F430B9
:1045B8001A688F4B9A4205D0D7F8F4301A688D4B99
:1045C8009A4204D1FFF73EF8C7F8FC0003E0FFF772
:1045D80025F8C7F8FC00D7F8F430DB69B3F5004FCD
:1045E80040F00C81D7F8FC300022C7F8E830C7F853
:1045F800EC20D7E93A4522462B469118B9655B412C
:10460800FB65D7E91623214612EB0108294643EB3F
:1046180001094FF000024FF000034FEAC90343EAD3
:1046280058734FEAC80290469946234618EB03038D
:10463800C7F8E0302B4649EB0303C7F8E430D7F856
:10464800F4305B680022C7F8D830C7F8DC20D7E917
:1046580036120B46DB183B65134642EB03037B65BA
:10466800D7E91423D7E93801FCF7B0F802460B461E
:10467800614BA3FB02235B091C01D7F8FC30002225
:10468800C7F8D030C7F8D420D7E9348942464B461A
:104698009118B9645B41FB64D7E91223414612EBD8
:1046A800010A494643EB010B4FF000024FF00003AB
:1046B8004FEACB0343EA5A734FEACA0292469B4633
:1046C80043461AEB0303C7F8C8304B464BEB0303CA
:1046D800C7F8CC30D7F8F4305B680022C7F8C03090
:1046E800C7F8C420D7E930120B46DB183B641346E1
:1046F80042EB03037B64D7E91023D7E93201FCF7C7
:1047080065F802460B4611463B4BA3FB01235B09A8
:10471800642202FB03F3CB1ADB0003F13202364BAF
:10472800A3FB02235B095B0003F4F8731C44D7F86E
:10473800FC300022C7F8B830C7F8BC20D7E92E896A
:1047480042464B469118B9635B41FB63D7E90E2398
:1047580041465118396349464B417B634FF000028B
:104768004FF00003D7E90CAB5946CB00514643EA5A
:1047780051735146CA0010461946034642469B18D3
:10478800C7F8B0304B460A4642EB0303C7F8B430CB
:10479800D7F8F4305B680022C7F8A830C7F8AC2017
:1047A800D7E92A120B46DB18BB62134642EB030318
:1047B800FB62D7E90A23D7E92C01FCF707F8024680
:1047C8000B460D4BA3FB02135B09642101FB03F3AA
:1047D800D31ADB003233084AA2FB03235B0903F038
:1047E8000702D7F8F4301B6822449A6006E100BF3C
:1047F80000100140001401401F85EB51D7F8FC3030
:104808000022C7F8A030C7F8A420D7E92889424673
:104818004B46911839625B417B62D7E908234146D0
:104828005418494643EB01054FF000024FF00003CE
:10483800EB0043EA5473E20014461D464346E3186E
:10484800C7F898304B4645EB0303C7F89C30D7F8B8
:10485800F4305B680022C7F89030C7F894204FF016
:1048680000024FF00003D7E9244529468B00214672
:1048780043EA917321468A00D7E92601FBF7A6FF90
:1048880002460B46604BA3FB02235B091C01D7F8C9
:10489800FC300022C7F88830C7F88C20D7E9228975
:1048A80042464B469118B9615B41FB61D7E9062343
:1048B80041465118396149464B417B614FF000022E
:1048C8004FF00003D7E904AB5946CB00514643EA01
:1048D80051735146CA0010461946034642469B1872
:1048E800C7F880304B460A4642EB0303C7F88430CA
:1048F800D7F8F4305B680022BB67FA674FF0000214
:104908004FF00003D7E91E8949468B00414643EA28
:10491800917341468A00D7E92001FBF757FF024609
:104928000B461146384BA3FB01235B09642202FBAB
:1049380003F3CB1A1B013233334AA2FB03235B096F
:1049480003F0F0031C44D7F8FC3000223B677A6779
:10495800D7E91C8942464B469118B9605B41FB6018
:10496800D7E9022341465118396049464B417B60DB
:104978004FF000024FF00003D7E900AB5946CB00D7
:10498800514643EA51735146CA0010461946034638
:1049980042469B18BB664B460A4642EB0303FB663E
:1049A800D7F8F4305B6800223B667A664FF0000265
:1049B8004FF00003D7E9188949468B00414643EA7E
:1049C800917341468A00D7E91A01FBF7FFFE0246B8
:1049D8000B460D4BA3FB02135B09642101FB03F398
:1049E800D31A1B013233084AA2FB03235B0903F0E5
:1049F8000F02D7F8F4301B6822449A6000BF07F50D
:104A08008077BD46BDE8B08F1F85EB510244034651
:104A1800934200D1704703F8011BF9E770B50D4DBB
:104A28000D4C641BA4100026A64209D10B4D0C4C5A
:104A380000F018F8641BA4100026A64205D170BD2A
:104A480055F8043B98470136EEE755F8043B98477C
:104A58000136F2E7AC4A0008AC4A0008AC4A000844
:104A6800B04A0008F8B500BFF8BC08BC9E467047BD
:0C4A7800F8B500BFF8BC08BC9E467047B3
:104A840000000000000000000102030406070809FA
:104A940000000000010203040006101600061016B0
:084AA40060BDFF7F010000006E
:044AAC00AD01000850
:044AB0008901000870
:104AB400FFAA000000000000FFAA2400000000007C
:104AC400FFAA630000000000FFAA025E00000000CD
:0C4AD4000024F4001000000001000000AD
:0400000508001DFDD5
:00000001FF
